{
  "_format": "hh-sol-artifact-1",
  "contractName": "NftMsg",
  "sourceName": "contracts/NftMsg.sol",
  "abi": [
    {
      "inputs": [],
      "stateMutability": "nonpayable",
      "type": "constructor"
    },
    {
      "anonymous": false,
      "inputs": [
        {
          "indexed": true,
          "internalType": "address",
          "name": "owner",
          "type": "address"
        },
        {
          "indexed": true,
          "internalType": "address",
          "name": "approved",
          "type": "address"
        },
        {
          "indexed": true,
          "internalType": "uint256",
          "name": "tokenId",
          "type": "uint256"
        }
      ],
      "name": "Approval",
      "type": "event"
    },
    {
      "anonymous": false,
      "inputs": [
        {
          "indexed": true,
          "internalType": "address",
          "name": "owner",
          "type": "address"
        },
        {
          "indexed": true,
          "internalType": "address",
          "name": "operator",
          "type": "address"
        },
        {
          "indexed": false,
          "internalType": "bool",
          "name": "approved",
          "type": "bool"
        }
      ],
      "name": "ApprovalForAll",
      "type": "event"
    },
    {
      "anonymous": false,
      "inputs": [
        {
          "indexed": true,
          "internalType": "address",
          "name": "from",
          "type": "address"
        },
        {
          "indexed": true,
          "internalType": "address",
          "name": "to",
          "type": "address"
        },
        {
          "indexed": true,
          "internalType": "uint256",
          "name": "tokenId",
          "type": "uint256"
        }
      ],
      "name": "Transfer",
      "type": "event"
    },
    {
      "inputs": [
        {
          "internalType": "address",
          "name": "to",
          "type": "address"
        },
        {
          "internalType": "uint256",
          "name": "tokenId",
          "type": "uint256"
        }
      ],
      "name": "approve",
      "outputs": [],
      "stateMutability": "nonpayable",
      "type": "function"
    },
    {
      "inputs": [
        {
          "internalType": "address",
          "name": "owner",
          "type": "address"
        }
      ],
      "name": "balanceOf",
      "outputs": [
        {
          "internalType": "uint256",
          "name": "",
          "type": "uint256"
        }
      ],
      "stateMutability": "view",
      "type": "function"
    },
    {
      "inputs": [
        {
          "internalType": "uint256",
          "name": "tokenId",
          "type": "uint256"
        }
      ],
      "name": "getApproved",
      "outputs": [
        {
          "internalType": "address",
          "name": "",
          "type": "address"
        }
      ],
      "stateMutability": "view",
      "type": "function"
    },
    {
      "inputs": [
        {
          "internalType": "address",
          "name": "owner",
          "type": "address"
        },
        {
          "internalType": "address",
          "name": "operator",
          "type": "address"
        }
      ],
      "name": "isApprovedForAll",
      "outputs": [
        {
          "internalType": "bool",
          "name": "",
          "type": "bool"
        }
      ],
      "stateMutability": "view",
      "type": "function"
    },
    {
      "inputs": [],
      "name": "name",
      "outputs": [
        {
          "internalType": "string",
          "name": "",
          "type": "string"
        }
      ],
      "stateMutability": "view",
      "type": "function"
    },
    {
      "inputs": [
        {
          "internalType": "uint256",
          "name": "tokenId",
          "type": "uint256"
        }
      ],
      "name": "ownerOf",
      "outputs": [
        {
          "internalType": "address",
          "name": "",
          "type": "address"
        }
      ],
      "stateMutability": "view",
      "type": "function"
    },
    {
      "inputs": [
        {
          "internalType": "address",
          "name": "_to",
          "type": "address"
        },
        {
          "internalType": "string",
          "name": "_uri",
          "type": "string"
        }
      ],
      "name": "safeMint",
      "outputs": [
        {
          "internalType": "uint256",
          "name": "",
          "type": "uint256"
        }
      ],
      "stateMutability": "nonpayable",
      "type": "function"
    },
    {
      "inputs": [
        {
          "internalType": "address",
          "name": "from",
          "type": "address"
        },
        {
          "internalType": "address",
          "name": "to",
          "type": "address"
        },
        {
          "internalType": "uint256",
          "name": "tokenId",
          "type": "uint256"
        }
      ],
      "name": "safeTransferFrom",
      "outputs": [],
      "stateMutability": "nonpayable",
      "type": "function"
    },
    {
      "inputs": [
        {
          "internalType": "address",
          "name": "from",
          "type": "address"
        },
        {
          "internalType": "address",
          "name": "to",
          "type": "address"
        },
        {
          "internalType": "uint256",
          "name": "tokenId",
          "type": "uint256"
        },
        {
          "internalType": "bytes",
          "name": "_data",
          "type": "bytes"
        }
      ],
      "name": "safeTransferFrom",
      "outputs": [],
      "stateMutability": "nonpayable",
      "type": "function"
    },
    {
      "inputs": [
        {
          "internalType": "address",
          "name": "operator",
          "type": "address"
        },
        {
          "internalType": "bool",
          "name": "approved",
          "type": "bool"
        }
      ],
      "name": "setApprovalForAll",
      "outputs": [],
      "stateMutability": "nonpayable",
      "type": "function"
    },
    {
      "inputs": [
        {
          "internalType": "address",
          "name": "_to",
          "type": "address"
        },
        {
          "internalType": "string",
          "name": "_uri",
          "type": "string"
        }
      ],
      "name": "specialMint",
      "outputs": [
        {
          "internalType": "uint256",
          "name": "",
          "type": "uint256"
        }
      ],
      "stateMutability": "payable",
      "type": "function"
    },
    {
      "inputs": [
        {
          "internalType": "bytes4",
          "name": "interfaceId",
          "type": "bytes4"
        }
      ],
      "name": "supportsInterface",
      "outputs": [
        {
          "internalType": "bool",
          "name": "",
          "type": "bool"
        }
      ],
      "stateMutability": "view",
      "type": "function"
    },
    {
      "inputs": [],
      "name": "symbol",
      "outputs": [
        {
          "internalType": "string",
          "name": "",
          "type": "string"
        }
      ],
      "stateMutability": "view",
      "type": "function"
    },
    {
      "inputs": [
        {
          "internalType": "uint256",
          "name": "tokenId",
          "type": "uint256"
        }
      ],
      "name": "tokenURI",
      "outputs": [
        {
          "internalType": "string",
          "name": "",
          "type": "string"
        }
      ],
      "stateMutability": "view",
      "type": "function"
    },
    {
      "inputs": [
        {
          "internalType": "address",
          "name": "from",
          "type": "address"
        },
        {
          "internalType": "address",
          "name": "to",
          "type": "address"
        },
        {
          "internalType": "uint256",
          "name": "tokenId",
          "type": "uint256"
        }
      ],
      "name": "transferFrom",
      "outputs": [],
      "stateMutability": "nonpayable",
      "type": "function"
    }
  ],
  "bytecode": "0x60806040523480156200001157600080fd5b506040518060400160405280600681526020017f4e46546d736700000000000000000000000000000000000000000000000000008152506040518060400160405280600481526020017f4e4d534700000000000000000000000000000000000000000000000000000000815250816000908051906020019062000096929190620000b8565b508060019080519060200190620000af929190620000b8565b505050620001cd565b828054620000c69062000168565b90600052602060002090601f016020900481019282620000ea576000855562000136565b82601f106200010557805160ff191683800117855562000136565b8280016001018555821562000136579182015b828111156200013557825182559160200191906001019062000118565b5b50905062000145919062000149565b5090565b5b80821115620001645760008160009055506001016200014a565b5090565b600060028204905060018216806200018157607f821691505b602082108114156200019857620001976200019e565b5b50919050565b7f4e487b7100000000000000000000000000000000000000000000000000000000600052602260045260246000fd5b612df680620001dd6000396000f3fe6080604052600436106100e85760003560e01c806370a082311161008a578063c87b56dd11610059578063c87b56dd14610304578063d204c45e14610341578063e985e9c51461037e578063ff019dc6146103bb576100e8565b806370a082311461024a57806395d89b4114610287578063a22cb465146102b2578063b88d4fde146102db576100e8565b8063095ea7b3116100c6578063095ea7b31461019257806323b872dd146101bb57806342842e0e146101e45780636352211e1461020d576100e8565b806301ffc9a7146100ed57806306fdde031461012a578063081812fc14610155575b600080fd5b3480156100f957600080fd5b50610114600480360381019061010f9190611e37565b6103eb565b6040516101219190612260565b60405180910390f35b34801561013657600080fd5b5061013f6104cd565b60405161014c919061227b565b60405180910390f35b34801561016157600080fd5b5061017c60048036038101906101779190611e89565b61055f565b60405161018991906121f9565b60405180910390f35b34801561019e57600080fd5b506101b960048036038101906101b49190611dfb565b6105e4565b005b3480156101c757600080fd5b506101e260048036038101906101dd9190611ca1565b6106fc565b005b3480156101f057600080fd5b5061020b60048036038101906102069190611ca1565b61075c565b005b34801561021957600080fd5b50610234600480360381019061022f9190611e89565b61077c565b60405161024191906121f9565b60405180910390f35b34801561025657600080fd5b50610271600480360381019061026c9190611c3c565b61082e565b60405161027e91906124bd565b60405180910390f35b34801561029357600080fd5b5061029c6108e6565b6040516102a9919061227b565b60405180910390f35b3480156102be57600080fd5b506102d960048036038101906102d49190611d6b565b610978565b005b3480156102e757600080fd5b5061030260048036038101906102fd9190611cf0565b61098e565b005b34801561031057600080fd5b5061032b60048036038101906103269190611e89565b6109f0565b604051610338919061227b565b60405180910390f35b34801561034d57600080fd5b5061036860048036038101906103639190611da7565b610a02565b60405161037591906124bd565b60405180910390f35b34801561038a57600080fd5b506103a560048036038101906103a09190611c65565b610a39565b6040516103b29190612260565b60405180910390f35b6103d560048036038101906103d09190611da7565b610acd565b6040516103e291906124bd565b60405180910390f35b60007f80ac58cd000000000000000000000000000000000000000000000000000000007bffffffffffffffffffffffffffffffffffffffffffffffffffffffff1916827bffffffffffffffffffffffffffffffffffffffffffffffffffffffff191614806104b657507f5b5e139f000000000000000000000000000000000000000000000000000000007bffffffffffffffffffffffffffffffffffffffffffffffffffffffff1916827bffffffffffffffffffffffffffffffffffffffffffffffffffffffff1916145b806104c657506104c582610b4f565b5b9050919050565b6060600080546104dc90612713565b80601f016020809104026020016040519081016040528092919081815260200182805461050890612713565b80156105555780601f1061052a57610100808354040283529160200191610555565b820191906000526020600020905b81548152906001019060200180831161053857829003601f168201915b5050505050905090565b600061056a82610bb9565b6105a9576040517f08c379a00000000000000000000000000000000000000000000000000000000081526004016105a09061241d565b60405180910390fd5b6004600083815260200190815260200160002060009054906101000a900473ffffffffffffffffffffffffffffffffffffffff169050919050565b60006105ef8261077c565b90508073ffffffffffffffffffffffffffffffffffffffff168373ffffffffffffffffffffffffffffffffffffffff161415610660576040517f08c379a00000000000000000000000000000000000000000000000000000000081526004016106579061245d565b60405180910390fd5b8073ffffffffffffffffffffffffffffffffffffffff1661067f610c25565b73ffffffffffffffffffffffffffffffffffffffff1614806106ae57506106ad816106a8610c25565b610a39565b5b6106ed576040517f08c379a00000000000000000000000000000000000000000000000000000000081526004016106e49061235d565b60405180910390fd5b6106f78383610c2d565b505050565b61070d610707610c25565b82610ce6565b61074c576040517f08c379a00000000000000000000000000000000000000000000000000000000081526004016107439061247d565b60405180910390fd5b610757838383610dc4565b505050565b6107778383836040518060200160405280600081525061098e565b505050565b6000806002600084815260200190815260200160002060009054906101000a900473ffffffffffffffffffffffffffffffffffffffff169050600073ffffffffffffffffffffffffffffffffffffffff168173ffffffffffffffffffffffffffffffffffffffff161415610825576040517f08c379a000000000000000000000000000000000000000000000000000000000815260040161081c9061239d565b60405180910390fd5b80915050919050565b60008073ffffffffffffffffffffffffffffffffffffffff168273ffffffffffffffffffffffffffffffffffffffff16141561089f576040517f08c379a00000000000000000000000000000000000000000000000000000000081526004016108969061237d565b60405180910390fd5b600360008373ffffffffffffffffffffffffffffffffffffffff1673ffffffffffffffffffffffffffffffffffffffff168152602001908152602001600020549050919050565b6060600180546108f590612713565b80601f016020809104026020016040519081016040528092919081815260200182805461092190612713565b801561096e5780601f106109435761010080835404028352916020019161096e565b820191906000526020600020905b81548152906001019060200180831161095157829003601f168201915b5050505050905090565b61098a610983610c25565b838361102b565b5050565b61099f610999610c25565b83610ce6565b6109de576040517f08c379a00000000000000000000000000000000000000000000000000000000081526004016109d59061247d565b60405180910390fd5b6109ea84848484611198565b50505050565b60606109fb826111f4565b9050919050565b600080610a0f6007611346565b9050610a1b6007611354565b610a25848261136a565b610a2f8184611388565b8091505092915050565b6000600560008473ffffffffffffffffffffffffffffffffffffffff1673ffffffffffffffffffffffffffffffffffffffff16815260200190815260200160002060008373ffffffffffffffffffffffffffffffffffffffff1673ffffffffffffffffffffffffffffffffffffffff16815260200190815260200160002060009054906101000a900460ff16905092915050565b600066038d7ea4c68000341015610b19576040517f08c379a0000000000000000000000000000000000000000000000000000000008152600401610b109061249d565b60405180910390fd5b6000610b256007611346565b9050610b316007611354565b610b3b84826113fc565b610b458184611388565b8091505092915050565b60007f01ffc9a7000000000000000000000000000000000000000000000000000000007bffffffffffffffffffffffffffffffffffffffffffffffffffffffff1916827bffffffffffffffffffffffffffffffffffffffffffffffffffffffff1916149050919050565b60008073ffffffffffffffffffffffffffffffffffffffff166002600084815260200190815260200160002060009054906101000a900473ffffffffffffffffffffffffffffffffffffffff1673ffffffffffffffffffffffffffffffffffffffff1614159050919050565b600033905090565b816004600083815260200190815260200160002060006101000a81548173ffffffffffffffffffffffffffffffffffffffff021916908373ffffffffffffffffffffffffffffffffffffffff160217905550808273ffffffffffffffffffffffffffffffffffffffff16610ca08361077c565b73ffffffffffffffffffffffffffffffffffffffff167f8c5be1e5ebec7d5bd14f71427d1e84f3dd0314c0f7b2291e5b200ac8c7c3b92560405160405180910390a45050565b6000610cf182610bb9565b610d30576040517f08c379a0000000000000000000000000000000000000000000000000000000008152600401610d279061233d565b60405180910390fd5b6000610d3b8361077c565b90508073ffffffffffffffffffffffffffffffffffffffff168473ffffffffffffffffffffffffffffffffffffffff161480610daa57508373ffffffffffffffffffffffffffffffffffffffff16610d928461055f565b73ffffffffffffffffffffffffffffffffffffffff16145b80610dbb5750610dba8185610a39565b5b91505092915050565b8273ffffffffffffffffffffffffffffffffffffffff16610de48261077c565b73ffffffffffffffffffffffffffffffffffffffff1614610e3a576040517f08c379a0000000000000000000000000000000000000000000000000000000008152600401610e31906122bd565b60405180910390fd5b600073ffffffffffffffffffffffffffffffffffffffff168273ffffffffffffffffffffffffffffffffffffffff161415610eaa576040517f08c379a0000000000000000000000000000000000000000000000000000000008152600401610ea1906122fd565b60405180910390fd5b610eb58383836115d6565b610ec0600082610c2d565b6001600360008573ffffffffffffffffffffffffffffffffffffffff1673ffffffffffffffffffffffffffffffffffffffff1681526020019081526020016000206000828254610f109190612629565b925050819055506001600360008473ffffffffffffffffffffffffffffffffffffffff1673ffffffffffffffffffffffffffffffffffffffff1681526020019081526020016000206000828254610f6791906125a2565b92505081905550816002600083815260200190815260200160002060006101000a81548173ffffffffffffffffffffffffffffffffffffffff021916908373ffffffffffffffffffffffffffffffffffffffff160217905550808273ffffffffffffffffffffffffffffffffffffffff168473ffffffffffffffffffffffffffffffffffffffff167fddf252ad1be2c89b69c2b068fc378daa952ba7f163c4a11628f55a4df523b3ef60405160405180910390a46110268383836115db565b505050565b8173ffffffffffffffffffffffffffffffffffffffff168373ffffffffffffffffffffffffffffffffffffffff16141561109a576040517f08c379a00000000000000000000000000000000000000000000000000000000081526004016110919061231d565b60405180910390fd5b80600560008573ffffffffffffffffffffffffffffffffffffffff1673ffffffffffffffffffffffffffffffffffffffff16815260200190815260200160002060008473ffffffffffffffffffffffffffffffffffffffff1673ffffffffffffffffffffffffffffffffffffffff16815260200190815260200160002060006101000a81548160ff0219169083151502179055508173ffffffffffffffffffffffffffffffffffffffff168373ffffffffffffffffffffffffffffffffffffffff167f17307eab39ab6107e8899845ad3d59bd9653f200f220920489ca2b5937696c318360405161118b9190612260565b60405180910390a3505050565b6111a3848484610dc4565b6111af848484846115e0565b6111ee576040517f08c379a00000000000000000000000000000000000000000000000000000000081526004016111e59061229d565b60405180910390fd5b50505050565b60606111ff82610bb9565b61123e576040517f08c379a0000000000000000000000000000000000000000000000000000000008152600401611235906123fd565b60405180910390fd5b600060066000848152602001908152602001600020805461125e90612713565b80601f016020809104026020016040519081016040528092919081815260200182805461128a90612713565b80156112d75780601f106112ac576101008083540402835291602001916112d7565b820191906000526020600020905b8154815290600101906020018083116112ba57829003601f168201915b5050505050905060006112e8611777565b90506000815114156112fe578192505050611341565b60008251111561133357808260405160200161131b9291906121d5565b60405160208183030381529060405292505050611341565b61133c8461178e565b925050505b919050565b600081600001549050919050565b6001816000016000828254019250508190555050565b611384828260405180602001604052806000815250611835565b5050565b61139182610bb9565b6113d0576040517f08c379a00000000000000000000000000000000000000000000000000000000081526004016113c7906123bd565b60405180910390fd5b806006600084815260200190815260200160002090805190602001906113f7929190611a60565b505050565b600073ffffffffffffffffffffffffffffffffffffffff168273ffffffffffffffffffffffffffffffffffffffff16141561146c576040517f08c379a0000000000000000000000000000000000000000000000000000000008152600401611463906123dd565b60405180910390fd5b61147581610bb9565b156114b5576040517f08c379a00000000000000000000000000000000000000000000000000000000081526004016114ac906122dd565b60405180910390fd5b6114c1600083836115d6565b6001600360008473ffffffffffffffffffffffffffffffffffffffff1673ffffffffffffffffffffffffffffffffffffffff168152602001908152602001600020600082825461151191906125a2565b92505081905550816002600083815260200190815260200160002060006101000a81548173ffffffffffffffffffffffffffffffffffffffff021916908373ffffffffffffffffffffffffffffffffffffffff160217905550808273ffffffffffffffffffffffffffffffffffffffff16600073ffffffffffffffffffffffffffffffffffffffff167fddf252ad1be2c89b69c2b068fc378daa952ba7f163c4a11628f55a4df523b3ef60405160405180910390a46115d2600083836115db565b5050565b505050565b505050565b60006116018473ffffffffffffffffffffffffffffffffffffffff16611890565b1561176a578373ffffffffffffffffffffffffffffffffffffffff1663150b7a0261162a610c25565b8786866040518563ffffffff1660e01b815260040161164c9493929190612214565b602060405180830381600087803b15801561166657600080fd5b505af192505050801561169757506040513d601f19601f820116820180604052508101906116949190611e60565b60015b61171a573d80600081146116c7576040519150601f19603f3d011682016040523d82523d6000602084013e6116cc565b606091505b50600081511415611712576040517f08c379a00000000000000000000000000000000000000000000000000000000081526004016117099061229d565b60405180910390fd5b805181602001fd5b63150b7a0260e01b7bffffffffffffffffffffffffffffffffffffffffffffffffffffffff1916817bffffffffffffffffffffffffffffffffffffffffffffffffffffffff19161491505061176f565b600190505b949350505050565b606060405180602001604052806000815250905090565b606061179982610bb9565b6117d8576040517f08c379a00000000000000000000000000000000000000000000000000000000081526004016117cf9061243d565b60405180910390fd5b60006117e2611777565b90506000815111611802576040518060200160405280600081525061182d565b8061180c846118b3565b60405160200161181d9291906121d5565b6040516020818303038152906040525b915050919050565b61183f83836113fc565b61184c60008484846115e0565b61188b576040517f08c379a00000000000000000000000000000000000000000000000000000000081526004016118829061229d565b60405180910390fd5b505050565b6000808273ffffffffffffffffffffffffffffffffffffffff163b119050919050565b606060008214156118fb576040518060400160405280600181526020017f30000000000000000000000000000000000000000000000000000000000000008152509050611a5b565b600082905060005b6000821461192d57808061191690612776565b915050600a8261192691906125f8565b9150611903565b60008167ffffffffffffffff81111561196f577f4e487b7100000000000000000000000000000000000000000000000000000000600052604160045260246000fd5b6040519080825280601f01601f1916602001820160405280156119a15781602001600182028036833780820191505090505b5090505b60008514611a54576001826119ba9190612629565b9150600a856119c991906127bf565b60306119d591906125a2565b60f81b818381518110611a11577f4e487b7100000000000000000000000000000000000000000000000000000000600052603260045260246000fd5b60200101907effffffffffffffffffffffffffffffffffffffffffffffffffffffffffffff1916908160001a905350600a85611a4d91906125f8565b94506119a5565b8093505050505b919050565b828054611a6c90612713565b90600052602060002090601f016020900481019282611a8e5760008555611ad5565b82601f10611aa757805160ff1916838001178555611ad5565b82800160010185558215611ad5579182015b82811115611ad4578251825591602001919060010190611ab9565b5b509050611ae29190611ae6565b5090565b5b80821115611aff576000816000905550600101611ae7565b5090565b6000611b16611b11846124fd565b6124d8565b905082815260208101848484011115611b2e57600080fd5b611b398482856126d1565b509392505050565b6000611b54611b4f8461252e565b6124d8565b905082815260208101848484011115611b6c57600080fd5b611b778482856126d1565b509392505050565b600081359050611b8e81612d64565b92915050565b600081359050611ba381612d7b565b92915050565b600081359050611bb881612d92565b92915050565b600081519050611bcd81612d92565b92915050565b600082601f830112611be457600080fd5b8135611bf4848260208601611b03565b91505092915050565b600082601f830112611c0e57600080fd5b8135611c1e848260208601611b41565b91505092915050565b600081359050611c3681612da9565b92915050565b600060208284031215611c4e57600080fd5b6000611c5c84828501611b7f565b91505092915050565b60008060408385031215611c7857600080fd5b6000611c8685828601611b7f565b9250506020611c9785828601611b7f565b9150509250929050565b600080600060608486031215611cb657600080fd5b6000611cc486828701611b7f565b9350506020611cd586828701611b7f565b9250506040611ce686828701611c27565b9150509250925092565b60008060008060808587031215611d0657600080fd5b6000611d1487828801611b7f565b9450506020611d2587828801611b7f565b9350506040611d3687828801611c27565b925050606085013567ffffffffffffffff811115611d5357600080fd5b611d5f87828801611bd3565b91505092959194509250565b60008060408385031215611d7e57600080fd5b6000611d8c85828601611b7f565b9250506020611d9d85828601611b94565b9150509250929050565b60008060408385031215611dba57600080fd5b6000611dc885828601611b7f565b925050602083013567ffffffffffffffff811115611de557600080fd5b611df185828601611bfd565b9150509250929050565b60008060408385031215611e0e57600080fd5b6000611e1c85828601611b7f565b9250506020611e2d85828601611c27565b9150509250929050565b600060208284031215611e4957600080fd5b6000611e5784828501611ba9565b91505092915050565b600060208284031215611e7257600080fd5b6000611e8084828501611bbe565b91505092915050565b600060208284031215611e9b57600080fd5b6000611ea984828501611c27565b91505092915050565b611ebb8161265d565b82525050565b611eca8161266f565b82525050565b6000611edb8261255f565b611ee58185612575565b9350611ef58185602086016126e0565b611efe816128ac565b840191505092915050565b6000611f148261256a565b611f1e8185612586565b9350611f2e8185602086016126e0565b611f37816128ac565b840191505092915050565b6000611f4d8261256a565b611f578185612597565b9350611f678185602086016126e0565b80840191505092915050565b6000611f80603283612586565b9150611f8b826128bd565b604082019050919050565b6000611fa3602583612586565b9150611fae8261290c565b604082019050919050565b6000611fc6601c83612586565b9150611fd18261295b565b602082019050919050565b6000611fe9602483612586565b9150611ff482612984565b604082019050919050565b600061200c601983612586565b9150612017826129d3565b602082019050919050565b600061202f602c83612586565b915061203a826129fc565b604082019050919050565b6000612052603883612586565b915061205d82612a4b565b604082019050919050565b6000612075602a83612586565b915061208082612a9a565b604082019050919050565b6000612098602983612586565b91506120a382612ae9565b604082019050919050565b60006120bb602e83612586565b91506120c682612b38565b604082019050919050565b60006120de602083612586565b91506120e982612b87565b602082019050919050565b6000612101603183612586565b915061210c82612bb0565b604082019050919050565b6000612124602c83612586565b915061212f82612bff565b604082019050919050565b6000612147602f83612586565b915061215282612c4e565b604082019050919050565b600061216a602183612586565b915061217582612c9d565b604082019050919050565b600061218d603183612586565b915061219882612cec565b604082019050919050565b60006121b0600f83612586565b91506121bb82612d3b565b602082019050919050565b6121cf816126c7565b82525050565b60006121e18285611f42565b91506121ed8284611f42565b91508190509392505050565b600060208201905061220e6000830184611eb2565b92915050565b60006080820190506122296000830187611eb2565b6122366020830186611eb2565b61224360408301856121c6565b81810360608301526122558184611ed0565b905095945050505050565b60006020820190506122756000830184611ec1565b92915050565b600060208201905081810360008301526122958184611f09565b905092915050565b600060208201905081810360008301526122b681611f73565b9050919050565b600060208201905081810360008301526122d681611f96565b9050919050565b600060208201905081810360008301526122f681611fb9565b9050919050565b6000602082019050818103600083015261231681611fdc565b9050919050565b6000602082019050818103600083015261233681611fff565b9050919050565b6000602082019050818103600083015261235681612022565b9050919050565b6000602082019050818103600083015261237681612045565b9050919050565b6000602082019050818103600083015261239681612068565b9050919050565b600060208201905081810360008301526123b68161208b565b9050919050565b600060208201905081810360008301526123d6816120ae565b9050919050565b600060208201905081810360008301526123f6816120d1565b9050919050565b60006020820190508181036000830152612416816120f4565b9050919050565b6000602082019050818103600083015261243681612117565b9050919050565b600060208201905081810360008301526124568161213a565b9050919050565b600060208201905081810360008301526124768161215d565b9050919050565b6000602082019050818103600083015261249681612180565b9050919050565b600060208201905081810360008301526124b6816121a3565b9050919050565b60006020820190506124d260008301846121c6565b92915050565b60006124e26124f3565b90506124ee8282612745565b919050565b6000604051905090565b600067ffffffffffffffff8211156125185761251761287d565b5b612521826128ac565b9050602081019050919050565b600067ffffffffffffffff8211156125495761254861287d565b5b612552826128ac565b9050602081019050919050565b600081519050919050565b600081519050919050565b600082825260208201905092915050565b600082825260208201905092915050565b600081905092915050565b60006125ad826126c7565b91506125b8836126c7565b9250827fffffffffffffffffffffffffffffffffffffffffffffffffffffffffffffffff038211156125ed576125ec6127f0565b5b828201905092915050565b6000612603826126c7565b915061260e836126c7565b92508261261e5761261d61281f565b5b828204905092915050565b6000612634826126c7565b915061263f836126c7565b925082821015612652576126516127f0565b5b828203905092915050565b6000612668826126a7565b9050919050565b60008115159050919050565b60007fffffffff0000000000000000000000000000000000000000000000000000000082169050919050565b600073ffffffffffffffffffffffffffffffffffffffff82169050919050565b6000819050919050565b82818337600083830152505050565b60005b838110156126fe5780820151818401526020810190506126e3565b8381111561270d576000848401525b50505050565b6000600282049050600182168061272b57607f821691505b6020821081141561273f5761273e61284e565b5b50919050565b61274e826128ac565b810181811067ffffffffffffffff8211171561276d5761276c61287d565b5b80604052505050565b6000612781826126c7565b91507fffffffffffffffffffffffffffffffffffffffffffffffffffffffffffffffff8214156127b4576127b36127f0565b5b600182019050919050565b60006127ca826126c7565b91506127d5836126c7565b9250826127e5576127e461281f565b5b828206905092915050565b7f4e487b7100000000000000000000000000000000000000000000000000000000600052601160045260246000fd5b7f4e487b7100000000000000000000000000000000000000000000000000000000600052601260045260246000fd5b7f4e487b7100000000000000000000000000000000000000000000000000000000600052602260045260246000fd5b7f4e487b7100000000000000000000000000000000000000000000000000000000600052604160045260246000fd5b6000601f19601f8301169050919050565b7f4552433732313a207472616e7366657220746f206e6f6e20455243373231526560008201527f63656976657220696d706c656d656e7465720000000000000000000000000000602082015250565b7f4552433732313a207472616e736665722066726f6d20696e636f72726563742060008201527f6f776e6572000000000000000000000000000000000000000000000000000000602082015250565b7f4552433732313a20746f6b656e20616c7265616479206d696e74656400000000600082015250565b7f4552433732313a207472616e7366657220746f20746865207a65726f2061646460008201527f7265737300000000000000000000000000000000000000000000000000000000602082015250565b7f4552433732313a20617070726f766520746f2063616c6c657200000000000000600082015250565b7f4552433732313a206f70657261746f7220717565727920666f72206e6f6e657860008201527f697374656e7420746f6b656e0000000000000000000000000000000000000000602082015250565b7f4552433732313a20617070726f76652063616c6c6572206973206e6f74206f7760008201527f6e6572206e6f7220617070726f76656420666f7220616c6c0000000000000000602082015250565b7f4552433732313a2062616c616e636520717565727920666f7220746865207a6560008201527f726f206164647265737300000000000000000000000000000000000000000000602082015250565b7f4552433732313a206f776e657220717565727920666f72206e6f6e657869737460008201527f656e7420746f6b656e0000000000000000000000000000000000000000000000602082015250565b7f45524337323155524953746f726167653a2055524920736574206f66206e6f6e60008201527f6578697374656e7420746f6b656e000000000000000000000000000000000000602082015250565b7f4552433732313a206d696e7420746f20746865207a65726f2061646472657373600082015250565b7f45524337323155524953746f726167653a2055524920717565727920666f722060008201527f6e6f6e6578697374656e7420746f6b656e000000000000000000000000000000602082015250565b7f4552433732313a20617070726f76656420717565727920666f72206e6f6e657860008201527f697374656e7420746f6b656e0000000000000000000000000000000000000000602082015250565b7f4552433732314d657461646174613a2055524920717565727920666f72206e6f60008201527f6e6578697374656e7420746f6b656e0000000000000000000000000000000000602082015250565b7f4552433732313a20617070726f76616c20746f2063757272656e74206f776e6560008201527f7200000000000000000000000000000000000000000000000000000000000000602082015250565b7f4552433732313a207472616e736665722063616c6c6572206973206e6f74206f60008201527f776e6572206e6f7220617070726f766564000000000000000000000000000000602082015250565b7f4e65656420746f20706179207570210000000000000000000000000000000000600082015250565b612d6d8161265d565b8114612d7857600080fd5b50565b612d848161266f565b8114612d8f57600080fd5b50565b612d9b8161267b565b8114612da657600080fd5b50565b612db2816126c7565b8114612dbd57600080fd5b5056fea26469706673582212200114dc085d5c28fe61ad8d1c01f8cae4d5bd5da48c907e21980c0829009ff99764736f6c63430008040033",
  "linkReferences": {},
  "deployedLinkReferences": {}
}