{
  "_format": "hh-sol-artifact-1",
  "contractName": "NftMsg",
  "sourceName": "contracts/NftMsg.sol",
  "abi": [
    {
      "inputs": [],
      "stateMutability": "nonpayable",
      "type": "constructor"
    },
    {
      "anonymous": false,
      "inputs": [
        {
          "indexed": true,
          "internalType": "address",
          "name": "owner",
          "type": "address"
        },
        {
          "indexed": true,
          "internalType": "address",
          "name": "approved",
          "type": "address"
        },
        {
          "indexed": true,
          "internalType": "uint256",
          "name": "tokenId",
          "type": "uint256"
        }
      ],
      "name": "Approval",
      "type": "event"
    },
    {
      "anonymous": false,
      "inputs": [
        {
          "indexed": true,
          "internalType": "address",
          "name": "owner",
          "type": "address"
        },
        {
          "indexed": true,
          "internalType": "address",
          "name": "operator",
          "type": "address"
        },
        {
          "indexed": false,
          "internalType": "bool",
          "name": "approved",
          "type": "bool"
        }
      ],
      "name": "ApprovalForAll",
      "type": "event"
    },
    {
      "anonymous": false,
      "inputs": [
        {
          "indexed": true,
          "internalType": "address",
          "name": "from",
          "type": "address"
        },
        {
          "indexed": true,
          "internalType": "address",
          "name": "to",
          "type": "address"
        },
        {
          "indexed": true,
          "internalType": "uint256",
          "name": "tokenId",
          "type": "uint256"
        }
      ],
      "name": "Transfer",
      "type": "event"
    },
    {
      "inputs": [
        {
          "internalType": "address",
          "name": "to",
          "type": "address"
        },
        {
          "internalType": "uint256",
          "name": "tokenId",
          "type": "uint256"
        }
      ],
      "name": "approve",
      "outputs": [],
      "stateMutability": "nonpayable",
      "type": "function"
    },
    {
      "inputs": [
        {
          "internalType": "address",
          "name": "owner",
          "type": "address"
        }
      ],
      "name": "balanceOf",
      "outputs": [
        {
          "internalType": "uint256",
          "name": "",
          "type": "uint256"
        }
      ],
      "stateMutability": "view",
      "type": "function"
    },
    {
      "inputs": [
        {
          "internalType": "uint256",
          "name": "tokenId",
          "type": "uint256"
        }
      ],
      "name": "getApproved",
      "outputs": [
        {
          "internalType": "address",
          "name": "",
          "type": "address"
        }
      ],
      "stateMutability": "view",
      "type": "function"
    },
    {
      "inputs": [
        {
          "internalType": "address",
          "name": "_owner",
          "type": "address"
        }
      ],
      "name": "getTokenIds",
      "outputs": [
        {
          "internalType": "uint256[]",
          "name": "",
          "type": "uint256[]"
        }
      ],
      "stateMutability": "view",
      "type": "function"
    },
    {
      "inputs": [
        {
          "internalType": "address",
          "name": "owner",
          "type": "address"
        },
        {
          "internalType": "address",
          "name": "operator",
          "type": "address"
        }
      ],
      "name": "isApprovedForAll",
      "outputs": [
        {
          "internalType": "bool",
          "name": "",
          "type": "bool"
        }
      ],
      "stateMutability": "view",
      "type": "function"
    },
    {
      "inputs": [],
      "name": "name",
      "outputs": [
        {
          "internalType": "string",
          "name": "",
          "type": "string"
        }
      ],
      "stateMutability": "view",
      "type": "function"
    },
    {
      "inputs": [
        {
          "internalType": "uint256",
          "name": "tokenId",
          "type": "uint256"
        }
      ],
      "name": "ownerOf",
      "outputs": [
        {
          "internalType": "address",
          "name": "",
          "type": "address"
        }
      ],
      "stateMutability": "view",
      "type": "function"
    },
    {
      "inputs": [
        {
          "internalType": "address",
          "name": "_to",
          "type": "address"
        },
        {
          "internalType": "string",
          "name": "_uri",
          "type": "string"
        }
      ],
      "name": "safeMint",
      "outputs": [
        {
          "internalType": "uint256",
          "name": "",
          "type": "uint256"
        }
      ],
      "stateMutability": "nonpayable",
      "type": "function"
    },
    {
      "inputs": [
        {
          "internalType": "address",
          "name": "from",
          "type": "address"
        },
        {
          "internalType": "address",
          "name": "to",
          "type": "address"
        },
        {
          "internalType": "uint256",
          "name": "tokenId",
          "type": "uint256"
        }
      ],
      "name": "safeTransferFrom",
      "outputs": [],
      "stateMutability": "nonpayable",
      "type": "function"
    },
    {
      "inputs": [
        {
          "internalType": "address",
          "name": "from",
          "type": "address"
        },
        {
          "internalType": "address",
          "name": "to",
          "type": "address"
        },
        {
          "internalType": "uint256",
          "name": "tokenId",
          "type": "uint256"
        },
        {
          "internalType": "bytes",
          "name": "_data",
          "type": "bytes"
        }
      ],
      "name": "safeTransferFrom",
      "outputs": [],
      "stateMutability": "nonpayable",
      "type": "function"
    },
    {
      "inputs": [
        {
          "internalType": "address",
          "name": "operator",
          "type": "address"
        },
        {
          "internalType": "bool",
          "name": "approved",
          "type": "bool"
        }
      ],
      "name": "setApprovalForAll",
      "outputs": [],
      "stateMutability": "nonpayable",
      "type": "function"
    },
    {
      "inputs": [
        {
          "internalType": "address",
          "name": "_to",
          "type": "address"
        },
        {
          "internalType": "string",
          "name": "_uri",
          "type": "string"
        }
      ],
      "name": "specialMint",
      "outputs": [
        {
          "internalType": "uint256",
          "name": "",
          "type": "uint256"
        }
      ],
      "stateMutability": "payable",
      "type": "function"
    },
    {
      "inputs": [
        {
          "internalType": "bytes4",
          "name": "interfaceId",
          "type": "bytes4"
        }
      ],
      "name": "supportsInterface",
      "outputs": [
        {
          "internalType": "bool",
          "name": "",
          "type": "bool"
        }
      ],
      "stateMutability": "view",
      "type": "function"
    },
    {
      "inputs": [],
      "name": "symbol",
      "outputs": [
        {
          "internalType": "string",
          "name": "",
          "type": "string"
        }
      ],
      "stateMutability": "view",
      "type": "function"
    },
    {
      "inputs": [
        {
          "internalType": "uint256",
          "name": "index",
          "type": "uint256"
        }
      ],
      "name": "tokenByIndex",
      "outputs": [
        {
          "internalType": "uint256",
          "name": "",
          "type": "uint256"
        }
      ],
      "stateMutability": "view",
      "type": "function"
    },
    {
      "inputs": [
        {
          "internalType": "address",
          "name": "owner",
          "type": "address"
        },
        {
          "internalType": "uint256",
          "name": "index",
          "type": "uint256"
        }
      ],
      "name": "tokenOfOwnerByIndex",
      "outputs": [
        {
          "internalType": "uint256",
          "name": "",
          "type": "uint256"
        }
      ],
      "stateMutability": "view",
      "type": "function"
    },
    {
      "inputs": [
        {
          "internalType": "uint256",
          "name": "tokenId",
          "type": "uint256"
        }
      ],
      "name": "tokenURI",
      "outputs": [
        {
          "internalType": "string",
          "name": "",
          "type": "string"
        }
      ],
      "stateMutability": "view",
      "type": "function"
    },
    {
      "inputs": [],
      "name": "totalSupply",
      "outputs": [
        {
          "internalType": "uint256",
          "name": "",
          "type": "uint256"
        }
      ],
      "stateMutability": "view",
      "type": "function"
    },
    {
      "inputs": [
        {
          "internalType": "address",
          "name": "from",
          "type": "address"
        },
        {
          "internalType": "address",
          "name": "to",
          "type": "address"
        },
        {
          "internalType": "uint256",
          "name": "tokenId",
          "type": "uint256"
        }
      ],
      "name": "transferFrom",
      "outputs": [],
      "stateMutability": "nonpayable",
      "type": "function"
    }
  ],
  "bytecode": "0x60806040523480156200001157600080fd5b506040518060400160405280600681526020017f4e46546d736700000000000000000000000000000000000000000000000000008152506040518060400160405280600481526020017f4e4d534700000000000000000000000000000000000000000000000000000000815250816000908051906020019062000096929190620000b8565b508060019080519060200190620000af929190620000b8565b505050620001cd565b828054620000c69062000168565b90600052602060002090601f016020900481019282620000ea576000855562000136565b82601f106200010557805160ff191683800117855562000136565b8280016001018555821562000136579182015b828111156200013557825182559160200191906001019062000118565b5b50905062000145919062000149565b5090565b5b80821115620001645760008160009055506001016200014a565b5090565b600060028204905060018216806200018157607f821691505b602082108114156200019857620001976200019e565b5b50919050565b7f4e487b7100000000000000000000000000000000000000000000000000000000600052602260045260246000fd5b61389b80620001dd6000396000f3fe6080604052600436106101145760003560e01c80636352211e116100a0578063c87b56dd11610064578063c87b56dd146103d5578063d004b03614610412578063d204c45e1461044f578063e985e9c51461048c578063ff019dc6146104c957610114565b80636352211e146102de57806370a082311461031b57806395d89b4114610358578063a22cb46514610383578063b88d4fde146103ac57610114565b806318160ddd116100e757806318160ddd146101e757806323b872dd146102125780632f745c591461023b57806342842e0e146102785780634f6ccce7146102a157610114565b806301ffc9a71461011957806306fdde0314610156578063081812fc14610181578063095ea7b3146101be575b600080fd5b34801561012557600080fd5b50610140600480360381019061013b91906126d8565b6104f9565b60405161014d9190612bee565b60405180910390f35b34801561016257600080fd5b5061016b61050b565b6040516101789190612c09565b60405180910390f35b34801561018d57600080fd5b506101a860048036038101906101a3919061272a565b61059d565b6040516101b59190612b65565b60405180910390f35b3480156101ca57600080fd5b506101e560048036038101906101e0919061269c565b610622565b005b3480156101f357600080fd5b506101fc61073a565b6040516102099190612e8b565b60405180910390f35b34801561021e57600080fd5b5061023960048036038101906102349190612542565b610747565b005b34801561024757600080fd5b50610262600480360381019061025d919061269c565b6107a7565b60405161026f9190612e8b565b60405180910390f35b34801561028457600080fd5b5061029f600480360381019061029a9190612542565b61084c565b005b3480156102ad57600080fd5b506102c860048036038101906102c3919061272a565b61086c565b6040516102d59190612e8b565b60405180910390f35b3480156102ea57600080fd5b506103056004803603810190610300919061272a565b610903565b6040516103129190612b65565b60405180910390f35b34801561032757600080fd5b50610342600480360381019061033d91906124dd565b6109b5565b60405161034f9190612e8b565b60405180910390f35b34801561036457600080fd5b5061036d610a6d565b60405161037a9190612c09565b60405180910390f35b34801561038f57600080fd5b506103aa60048036038101906103a5919061260c565b610aff565b005b3480156103b857600080fd5b506103d360048036038101906103ce9190612591565b610b15565b005b3480156103e157600080fd5b506103fc60048036038101906103f7919061272a565b610b77565b6040516104099190612c09565b60405180910390f35b34801561041e57600080fd5b50610439600480360381019061043491906124dd565b610b89565b6040516104469190612bcc565b60405180910390f35b34801561045b57600080fd5b5061047660048036038101906104719190612648565b610c85565b6040516104839190612e8b565b60405180910390f35b34801561049857600080fd5b506104b360048036038101906104ae9190612506565b610cbc565b6040516104c09190612bee565b60405180910390f35b6104e360048036038101906104de9190612648565b610d50565b6040516104f09190612e8b565b60405180910390f35b600061050482610dd2565b9050919050565b60606000805461051a9061311a565b80601f01602080910402602001604051908101604052809291908181526020018280546105469061311a565b80156105935780601f1061056857610100808354040283529160200191610593565b820191906000526020600020905b81548152906001019060200180831161057657829003601f168201915b5050505050905090565b60006105a882610e4c565b6105e7576040517f08c379a00000000000000000000000000000000000000000000000000000000081526004016105de90612dcb565b60405180910390fd5b6004600083815260200190815260200160002060009054906101000a900473ffffffffffffffffffffffffffffffffffffffff169050919050565b600061062d82610903565b90508073ffffffffffffffffffffffffffffffffffffffff168373ffffffffffffffffffffffffffffffffffffffff16141561069e576040517f08c379a000000000000000000000000000000000000000000000000000000000815260040161069590612e0b565b60405180910390fd5b8073ffffffffffffffffffffffffffffffffffffffff166106bd610eb8565b73ffffffffffffffffffffffffffffffffffffffff1614806106ec57506106eb816106e6610eb8565b610cbc565b5b61072b576040517f08c379a000000000000000000000000000000000000000000000000000000000815260040161072290612d0b565b60405180910390fd5b6107358383610ec0565b505050565b6000600980549050905090565b610758610752610eb8565b82610f79565b610797576040517f08c379a000000000000000000000000000000000000000000000000000000000815260040161078e90612e2b565b60405180910390fd5b6107a2838383611057565b505050565b60006107b2836109b5565b82106107f3576040517f08c379a00000000000000000000000000000000000000000000000000000000081526004016107ea90612c2b565b60405180910390fd5b600760008473ffffffffffffffffffffffffffffffffffffffff1673ffffffffffffffffffffffffffffffffffffffff168152602001908152602001600020600083815260200190815260200160002054905092915050565b61086783838360405180602001604052806000815250610b15565b505050565b600061087661073a565b82106108b7576040517f08c379a00000000000000000000000000000000000000000000000000000000081526004016108ae90612e4b565b60405180910390fd5b600982815481106108f1577f4e487b7100000000000000000000000000000000000000000000000000000000600052603260045260246000fd5b90600052602060002001549050919050565b6000806002600084815260200190815260200160002060009054906101000a900473ffffffffffffffffffffffffffffffffffffffff169050600073ffffffffffffffffffffffffffffffffffffffff168173ffffffffffffffffffffffffffffffffffffffff1614156109ac576040517f08c379a00000000000000000000000000000000000000000000000000000000081526004016109a390612d4b565b60405180910390fd5b80915050919050565b60008073ffffffffffffffffffffffffffffffffffffffff168273ffffffffffffffffffffffffffffffffffffffff161415610a26576040517f08c379a0000000000000000000000000000000000000000000000000000000008152600401610a1d90612d2b565b60405180910390fd5b600360008373ffffffffffffffffffffffffffffffffffffffff1673ffffffffffffffffffffffffffffffffffffffff168152602001908152602001600020549050919050565b606060018054610a7c9061311a565b80601f0160208091040260200160405190810160405280929190818152602001828054610aa89061311a565b8015610af55780601f10610aca57610100808354040283529160200191610af5565b820191906000526020600020905b815481529060010190602001808311610ad857829003601f168201915b5050505050905090565b610b11610b0a610eb8565b83836112be565b5050565b610b26610b20610eb8565b83610f79565b610b65576040517f08c379a0000000000000000000000000000000000000000000000000000000008152600401610b5c90612e2b565b60405180910390fd5b610b718484848461142b565b50505050565b6060610b8282611487565b9050919050565b60606000610b96836109b5565b67ffffffffffffffff811115610bd5577f4e487b7100000000000000000000000000000000000000000000000000000000600052604160045260246000fd5b604051908082528060200260200182016040528015610c035781602001602082028036833780820191505090505b50905060005b610c12846109b5565b811015610c7b57610c2384826107a7565b828281518110610c5c577f4e487b7100000000000000000000000000000000000000000000000000000000600052603260045260246000fd5b6020026020010181815250508080610c739061317d565b915050610c09565b8192505050919050565b600080610c92600b6115d9565b9050610c9e600b6115e7565b610ca884826115fd565b610cb2818461161b565b8091505092915050565b6000600560008473ffffffffffffffffffffffffffffffffffffffff1673ffffffffffffffffffffffffffffffffffffffff16815260200190815260200160002060008373ffffffffffffffffffffffffffffffffffffffff1673ffffffffffffffffffffffffffffffffffffffff16815260200190815260200160002060009054906101000a900460ff16905092915050565b600066038d7ea4c68000341015610d9c576040517f08c379a0000000000000000000000000000000000000000000000000000000008152600401610d9390612e6b565b60405180910390fd5b6000610da8600b6115d9565b9050610db4600b6115e7565b610dbe848261168f565b610dc8818461161b565b8091505092915050565b60007f780e9d63000000000000000000000000000000000000000000000000000000007bffffffffffffffffffffffffffffffffffffffffffffffffffffffff1916827bffffffffffffffffffffffffffffffffffffffffffffffffffffffff19161480610e455750610e4482611869565b5b9050919050565b60008073ffffffffffffffffffffffffffffffffffffffff166002600084815260200190815260200160002060009054906101000a900473ffffffffffffffffffffffffffffffffffffffff1673ffffffffffffffffffffffffffffffffffffffff1614159050919050565b600033905090565b816004600083815260200190815260200160002060006101000a81548173ffffffffffffffffffffffffffffffffffffffff021916908373ffffffffffffffffffffffffffffffffffffffff160217905550808273ffffffffffffffffffffffffffffffffffffffff16610f3383610903565b73ffffffffffffffffffffffffffffffffffffffff167f8c5be1e5ebec7d5bd14f71427d1e84f3dd0314c0f7b2291e5b200ac8c7c3b92560405160405180910390a45050565b6000610f8482610e4c565b610fc3576040517f08c379a0000000000000000000000000000000000000000000000000000000008152600401610fba90612ceb565b60405180910390fd5b6000610fce83610903565b90508073ffffffffffffffffffffffffffffffffffffffff168473ffffffffffffffffffffffffffffffffffffffff16148061103d57508373ffffffffffffffffffffffffffffffffffffffff166110258461059d565b73ffffffffffffffffffffffffffffffffffffffff16145b8061104e575061104d8185610cbc565b5b91505092915050565b8273ffffffffffffffffffffffffffffffffffffffff1661107782610903565b73ffffffffffffffffffffffffffffffffffffffff16146110cd576040517f08c379a00000000000000000000000000000000000000000000000000000000081526004016110c490612c6b565b60405180910390fd5b600073ffffffffffffffffffffffffffffffffffffffff168273ffffffffffffffffffffffffffffffffffffffff16141561113d576040517f08c379a000000000000000000000000000000000000000000000000000000000815260040161113490612cab565b60405180910390fd5b61114883838361194b565b611153600082610ec0565b6001600360008573ffffffffffffffffffffffffffffffffffffffff1673ffffffffffffffffffffffffffffffffffffffff16815260200190815260200160002060008282546111a39190613030565b925050819055506001600360008473ffffffffffffffffffffffffffffffffffffffff1673ffffffffffffffffffffffffffffffffffffffff16815260200190815260200160002060008282546111fa9190612fa9565b92505081905550816002600083815260200190815260200160002060006101000a81548173ffffffffffffffffffffffffffffffffffffffff021916908373ffffffffffffffffffffffffffffffffffffffff160217905550808273ffffffffffffffffffffffffffffffffffffffff168473ffffffffffffffffffffffffffffffffffffffff167fddf252ad1be2c89b69c2b068fc378daa952ba7f163c4a11628f55a4df523b3ef60405160405180910390a46112b983838361195b565b505050565b8173ffffffffffffffffffffffffffffffffffffffff168373ffffffffffffffffffffffffffffffffffffffff16141561132d576040517f08c379a000000000000000000000000000000000000000000000000000000000815260040161132490612ccb565b60405180910390fd5b80600560008573ffffffffffffffffffffffffffffffffffffffff1673ffffffffffffffffffffffffffffffffffffffff16815260200190815260200160002060008473ffffffffffffffffffffffffffffffffffffffff1673ffffffffffffffffffffffffffffffffffffffff16815260200190815260200160002060006101000a81548160ff0219169083151502179055508173ffffffffffffffffffffffffffffffffffffffff168373ffffffffffffffffffffffffffffffffffffffff167f17307eab39ab6107e8899845ad3d59bd9653f200f220920489ca2b5937696c318360405161141e9190612bee565b60405180910390a3505050565b611436848484611057565b61144284848484611960565b611481576040517f08c379a000000000000000000000000000000000000000000000000000000000815260040161147890612c4b565b60405180910390fd5b50505050565b606061149282610e4c565b6114d1576040517f08c379a00000000000000000000000000000000000000000000000000000000081526004016114c890612dab565b60405180910390fd5b60006006600084815260200190815260200160002080546114f19061311a565b80601f016020809104026020016040519081016040528092919081815260200182805461151d9061311a565b801561156a5780601f1061153f5761010080835404028352916020019161156a565b820191906000526020600020905b81548152906001019060200180831161154d57829003601f168201915b50505050509050600061157b611af7565b90506000815114156115915781925050506115d4565b6000825111156115c65780826040516020016115ae929190612b41565b604051602081830303815290604052925050506115d4565b6115cf84611b34565b925050505b919050565b600081600001549050919050565b6001816000016000828254019250508190555050565b611617828260405180602001604052806000815250611bdb565b5050565b61162482610e4c565b611663576040517f08c379a000000000000000000000000000000000000000000000000000000000815260040161165a90612d6b565b60405180910390fd5b8060066000848152602001908152602001600020908051906020019061168a929190612301565b505050565b600073ffffffffffffffffffffffffffffffffffffffff168273ffffffffffffffffffffffffffffffffffffffff1614156116ff576040517f08c379a00000000000000000000000000000000000000000000000000000000081526004016116f690612d8b565b60405180910390fd5b61170881610e4c565b15611748576040517f08c379a000000000000000000000000000000000000000000000000000000000815260040161173f90612c8b565b60405180910390fd5b6117546000838361194b565b6001600360008473ffffffffffffffffffffffffffffffffffffffff1673ffffffffffffffffffffffffffffffffffffffff16815260200190815260200160002060008282546117a49190612fa9565b92505081905550816002600083815260200190815260200160002060006101000a81548173ffffffffffffffffffffffffffffffffffffffff021916908373ffffffffffffffffffffffffffffffffffffffff160217905550808273ffffffffffffffffffffffffffffffffffffffff16600073ffffffffffffffffffffffffffffffffffffffff167fddf252ad1be2c89b69c2b068fc378daa952ba7f163c4a11628f55a4df523b3ef60405160405180910390a46118656000838361195b565b5050565b60007f80ac58cd000000000000000000000000000000000000000000000000000000007bffffffffffffffffffffffffffffffffffffffffffffffffffffffff1916827bffffffffffffffffffffffffffffffffffffffffffffffffffffffff1916148061193457507f5b5e139f000000000000000000000000000000000000000000000000000000007bffffffffffffffffffffffffffffffffffffffffffffffffffffffff1916827bffffffffffffffffffffffffffffffffffffffffffffffffffffffff1916145b80611944575061194382611c36565b5b9050919050565b611956838383611ca0565b505050565b505050565b60006119818473ffffffffffffffffffffffffffffffffffffffff16611db4565b15611aea578373ffffffffffffffffffffffffffffffffffffffff1663150b7a026119aa610eb8565b8786866040518563ffffffff1660e01b81526004016119cc9493929190612b80565b602060405180830381600087803b1580156119e657600080fd5b505af1925050508015611a1757506040513d601f19601f82011682018060405250810190611a149190612701565b60015b611a9a573d8060008114611a47576040519150601f19603f3d011682016040523d82523d6000602084013e611a4c565b606091505b50600081511415611a92576040517f08c379a0000000000000000000000000000000000000000000000000000000008152600401611a8990612c4b565b60405180910390fd5b805181602001fd5b63150b7a0260e01b7bffffffffffffffffffffffffffffffffffffffffffffffffffffffff1916817bffffffffffffffffffffffffffffffffffffffffffffffffffffffff191614915050611aef565b600190505b949350505050565b60606040518060400160405280600781526020017f697066733a2f2f00000000000000000000000000000000000000000000000000815250905090565b6060611b3f82610e4c565b611b7e576040517f08c379a0000000000000000000000000000000000000000000000000000000008152600401611b7590612deb565b60405180910390fd5b6000611b88611af7565b90506000815111611ba85760405180602001604052806000815250611bd3565b80611bb284611dd7565b604051602001611bc3929190612b41565b6040516020818303038152906040525b915050919050565b611be5838361168f565b611bf26000848484611960565b611c31576040517f08c379a0000000000000000000000000000000000000000000000000000000008152600401611c2890612c4b565b60405180910390fd5b505050565b60007f01ffc9a7000000000000000000000000000000000000000000000000000000007bffffffffffffffffffffffffffffffffffffffffffffffffffffffff1916827bffffffffffffffffffffffffffffffffffffffffffffffffffffffff1916149050919050565b611cab838383611f84565b600073ffffffffffffffffffffffffffffffffffffffff168373ffffffffffffffffffffffffffffffffffffffff161415611cee57611ce981611f89565b611d2d565b8173ffffffffffffffffffffffffffffffffffffffff168373ffffffffffffffffffffffffffffffffffffffff1614611d2c57611d2b8382611fd2565b5b5b600073ffffffffffffffffffffffffffffffffffffffff168273ffffffffffffffffffffffffffffffffffffffff161415611d7057611d6b8161213f565b611daf565b8273ffffffffffffffffffffffffffffffffffffffff168273ffffffffffffffffffffffffffffffffffffffff1614611dae57611dad8282612282565b5b5b505050565b6000808273ffffffffffffffffffffffffffffffffffffffff163b119050919050565b60606000821415611e1f576040518060400160405280600181526020017f30000000000000000000000000000000000000000000000000000000000000008152509050611f7f565b600082905060005b60008214611e51578080611e3a9061317d565b915050600a82611e4a9190612fff565b9150611e27565b60008167ffffffffffffffff811115611e93577f4e487b7100000000000000000000000000000000000000000000000000000000600052604160045260246000fd5b6040519080825280601f01601f191660200182016040528015611ec55781602001600182028036833780820191505090505b5090505b60008514611f7857600182611ede9190613030565b9150600a85611eed91906131c6565b6030611ef99190612fa9565b60f81b818381518110611f35577f4e487b7100000000000000000000000000000000000000000000000000000000600052603260045260246000fd5b60200101907effffffffffffffffffffffffffffffffffffffffffffffffffffffffffffff1916908160001a905350600a85611f719190612fff565b9450611ec9565b8093505050505b919050565b505050565b600980549050600a600083815260200190815260200160002081905550600981908060018154018082558091505060019003906000526020600020016000909190919091505550565b60006001611fdf846109b5565b611fe99190613030565b90506000600860008481526020019081526020016000205490508181146120ce576000600760008673ffffffffffffffffffffffffffffffffffffffff1673ffffffffffffffffffffffffffffffffffffffff168152602001908152602001600020600084815260200190815260200160002054905080600760008773ffffffffffffffffffffffffffffffffffffffff1673ffffffffffffffffffffffffffffffffffffffff168152602001908152602001600020600084815260200190815260200160002081905550816008600083815260200190815260200160002081905550505b6008600084815260200190815260200160002060009055600760008573ffffffffffffffffffffffffffffffffffffffff1673ffffffffffffffffffffffffffffffffffffffff16815260200190815260200160002060008381526020019081526020016000206000905550505050565b600060016009805490506121539190613030565b90506000600a60008481526020019081526020016000205490506000600983815481106121a9577f4e487b7100000000000000000000000000000000000000000000000000000000600052603260045260246000fd5b9060005260206000200154905080600983815481106121f1577f4e487b7100000000000000000000000000000000000000000000000000000000600052603260045260246000fd5b906000526020600020018190555081600a600083815260200190815260200160002081905550600a6000858152602001908152602001600020600090556009805480612266577f4e487b7100000000000000000000000000000000000000000000000000000000600052603160045260246000fd5b6001900381819060005260206000200160009055905550505050565b600061228d836109b5565b905081600760008573ffffffffffffffffffffffffffffffffffffffff1673ffffffffffffffffffffffffffffffffffffffff168152602001908152602001600020600083815260200190815260200160002081905550806008600084815260200190815260200160002081905550505050565b82805461230d9061311a565b90600052602060002090601f01602090048101928261232f5760008555612376565b82601f1061234857805160ff1916838001178555612376565b82800160010185558215612376579182015b8281111561237557825182559160200191906001019061235a565b5b5090506123839190612387565b5090565b5b808211156123a0576000816000905550600101612388565b5090565b60006123b76123b284612ecb565b612ea6565b9050828152602081018484840111156123cf57600080fd5b6123da8482856130d8565b509392505050565b60006123f56123f084612efc565b612ea6565b90508281526020810184848401111561240d57600080fd5b6124188482856130d8565b509392505050565b60008135905061242f81613809565b92915050565b60008135905061244481613820565b92915050565b60008135905061245981613837565b92915050565b60008151905061246e81613837565b92915050565b600082601f83011261248557600080fd5b81356124958482602086016123a4565b91505092915050565b600082601f8301126124af57600080fd5b81356124bf8482602086016123e2565b91505092915050565b6000813590506124d78161384e565b92915050565b6000602082840312156124ef57600080fd5b60006124fd84828501612420565b91505092915050565b6000806040838503121561251957600080fd5b600061252785828601612420565b925050602061253885828601612420565b9150509250929050565b60008060006060848603121561255757600080fd5b600061256586828701612420565b935050602061257686828701612420565b9250506040612587868287016124c8565b9150509250925092565b600080600080608085870312156125a757600080fd5b60006125b587828801612420565b94505060206125c687828801612420565b93505060406125d7878288016124c8565b925050606085013567ffffffffffffffff8111156125f457600080fd5b61260087828801612474565b91505092959194509250565b6000806040838503121561261f57600080fd5b600061262d85828601612420565b925050602061263e85828601612435565b9150509250929050565b6000806040838503121561265b57600080fd5b600061266985828601612420565b925050602083013567ffffffffffffffff81111561268657600080fd5b6126928582860161249e565b9150509250929050565b600080604083850312156126af57600080fd5b60006126bd85828601612420565b92505060206126ce858286016124c8565b9150509250929050565b6000602082840312156126ea57600080fd5b60006126f88482850161244a565b91505092915050565b60006020828403121561271357600080fd5b60006127218482850161245f565b91505092915050565b60006020828403121561273c57600080fd5b600061274a848285016124c8565b91505092915050565b600061275f8383612b23565b60208301905092915050565b61277481613064565b82525050565b600061278582612f3d565b61278f8185612f6b565b935061279a83612f2d565b8060005b838110156127cb5781516127b28882612753565b97506127bd83612f5e565b92505060018101905061279e565b5085935050505092915050565b6127e181613076565b82525050565b60006127f282612f48565b6127fc8185612f7c565b935061280c8185602086016130e7565b612815816132b3565b840191505092915050565b600061282b82612f53565b6128358185612f8d565b93506128458185602086016130e7565b61284e816132b3565b840191505092915050565b600061286482612f53565b61286e8185612f9e565b935061287e8185602086016130e7565b80840191505092915050565b6000612897602b83612f8d565b91506128a2826132c4565b604082019050919050565b60006128ba603283612f8d565b91506128c582613313565b604082019050919050565b60006128dd602583612f8d565b91506128e882613362565b604082019050919050565b6000612900601c83612f8d565b915061290b826133b1565b602082019050919050565b6000612923602483612f8d565b915061292e826133da565b604082019050919050565b6000612946601983612f8d565b915061295182613429565b602082019050919050565b6000612969602c83612f8d565b915061297482613452565b604082019050919050565b600061298c603883612f8d565b9150612997826134a1565b604082019050919050565b60006129af602a83612f8d565b91506129ba826134f0565b604082019050919050565b60006129d2602983612f8d565b91506129dd8261353f565b604082019050919050565b60006129f5602e83612f8d565b9150612a008261358e565b604082019050919050565b6000612a18602083612f8d565b9150612a23826135dd565b602082019050919050565b6000612a3b603183612f8d565b9150612a4682613606565b604082019050919050565b6000612a5e602c83612f8d565b9150612a6982613655565b604082019050919050565b6000612a81602f83612f8d565b9150612a8c826136a4565b604082019050919050565b6000612aa4602183612f8d565b9150612aaf826136f3565b604082019050919050565b6000612ac7603183612f8d565b9150612ad282613742565b604082019050919050565b6000612aea602c83612f8d565b9150612af582613791565b604082019050919050565b6000612b0d600f83612f8d565b9150612b18826137e0565b602082019050919050565b612b2c816130ce565b82525050565b612b3b816130ce565b82525050565b6000612b4d8285612859565b9150612b598284612859565b91508190509392505050565b6000602082019050612b7a600083018461276b565b92915050565b6000608082019050612b95600083018761276b565b612ba2602083018661276b565b612baf6040830185612b32565b8181036060830152612bc181846127e7565b905095945050505050565b60006020820190508181036000830152612be6818461277a565b905092915050565b6000602082019050612c0360008301846127d8565b92915050565b60006020820190508181036000830152612c238184612820565b905092915050565b60006020820190508181036000830152612c448161288a565b9050919050565b60006020820190508181036000830152612c64816128ad565b9050919050565b60006020820190508181036000830152612c84816128d0565b9050919050565b60006020820190508181036000830152612ca4816128f3565b9050919050565b60006020820190508181036000830152612cc481612916565b9050919050565b60006020820190508181036000830152612ce481612939565b9050919050565b60006020820190508181036000830152612d048161295c565b9050919050565b60006020820190508181036000830152612d248161297f565b9050919050565b60006020820190508181036000830152612d44816129a2565b9050919050565b60006020820190508181036000830152612d64816129c5565b9050919050565b60006020820190508181036000830152612d84816129e8565b9050919050565b60006020820190508181036000830152612da481612a0b565b9050919050565b60006020820190508181036000830152612dc481612a2e565b9050919050565b60006020820190508181036000830152612de481612a51565b9050919050565b60006020820190508181036000830152612e0481612a74565b9050919050565b60006020820190508181036000830152612e2481612a97565b9050919050565b60006020820190508181036000830152612e4481612aba565b9050919050565b60006020820190508181036000830152612e6481612add565b9050919050565b60006020820190508181036000830152612e8481612b00565b9050919050565b6000602082019050612ea06000830184612b32565b92915050565b6000612eb0612ec1565b9050612ebc828261314c565b919050565b6000604051905090565b600067ffffffffffffffff821115612ee657612ee5613284565b5b612eef826132b3565b9050602081019050919050565b600067ffffffffffffffff821115612f1757612f16613284565b5b612f20826132b3565b9050602081019050919050565b6000819050602082019050919050565b600081519050919050565b600081519050919050565b600081519050919050565b6000602082019050919050565b600082825260208201905092915050565b600082825260208201905092915050565b600082825260208201905092915050565b600081905092915050565b6000612fb4826130ce565b9150612fbf836130ce565b9250827fffffffffffffffffffffffffffffffffffffffffffffffffffffffffffffffff03821115612ff457612ff36131f7565b5b828201905092915050565b600061300a826130ce565b9150613015836130ce565b92508261302557613024613226565b5b828204905092915050565b600061303b826130ce565b9150613046836130ce565b925082821015613059576130586131f7565b5b828203905092915050565b600061306f826130ae565b9050919050565b60008115159050919050565b60007fffffffff0000000000000000000000000000000000000000000000000000000082169050919050565b600073ffffffffffffffffffffffffffffffffffffffff82169050919050565b6000819050919050565b82818337600083830152505050565b60005b838110156131055780820151818401526020810190506130ea565b83811115613114576000848401525b50505050565b6000600282049050600182168061313257607f821691505b6020821081141561314657613145613255565b5b50919050565b613155826132b3565b810181811067ffffffffffffffff8211171561317457613173613284565b5b80604052505050565b6000613188826130ce565b91507fffffffffffffffffffffffffffffffffffffffffffffffffffffffffffffffff8214156131bb576131ba6131f7565b5b600182019050919050565b60006131d1826130ce565b91506131dc836130ce565b9250826131ec576131eb613226565b5b828206905092915050565b7f4e487b7100000000000000000000000000000000000000000000000000000000600052601160045260246000fd5b7f4e487b7100000000000000000000000000000000000000000000000000000000600052601260045260246000fd5b7f4e487b7100000000000000000000000000000000000000000000000000000000600052602260045260246000fd5b7f4e487b7100000000000000000000000000000000000000000000000000000000600052604160045260246000fd5b6000601f19601f8301169050919050565b7f455243373231456e756d657261626c653a206f776e657220696e646578206f7560008201527f74206f6620626f756e6473000000000000000000000000000000000000000000602082015250565b7f4552433732313a207472616e7366657220746f206e6f6e20455243373231526560008201527f63656976657220696d706c656d656e7465720000000000000000000000000000602082015250565b7f4552433732313a207472616e736665722066726f6d20696e636f72726563742060008201527f6f776e6572000000000000000000000000000000000000000000000000000000602082015250565b7f4552433732313a20746f6b656e20616c7265616479206d696e74656400000000600082015250565b7f4552433732313a207472616e7366657220746f20746865207a65726f2061646460008201527f7265737300000000000000000000000000000000000000000000000000000000602082015250565b7f4552433732313a20617070726f766520746f2063616c6c657200000000000000600082015250565b7f4552433732313a206f70657261746f7220717565727920666f72206e6f6e657860008201527f697374656e7420746f6b656e0000000000000000000000000000000000000000602082015250565b7f4552433732313a20617070726f76652063616c6c6572206973206e6f74206f7760008201527f6e6572206e6f7220617070726f76656420666f7220616c6c0000000000000000602082015250565b7f4552433732313a2062616c616e636520717565727920666f7220746865207a6560008201527f726f206164647265737300000000000000000000000000000000000000000000602082015250565b7f4552433732313a206f776e657220717565727920666f72206e6f6e657869737460008201527f656e7420746f6b656e0000000000000000000000000000000000000000000000602082015250565b7f45524337323155524953746f726167653a2055524920736574206f66206e6f6e60008201527f6578697374656e7420746f6b656e000000000000000000000000000000000000602082015250565b7f4552433732313a206d696e7420746f20746865207a65726f2061646472657373600082015250565b7f45524337323155524953746f726167653a2055524920717565727920666f722060008201527f6e6f6e6578697374656e7420746f6b656e000000000000000000000000000000602082015250565b7f4552433732313a20617070726f76656420717565727920666f72206e6f6e657860008201527f697374656e7420746f6b656e0000000000000000000000000000000000000000602082015250565b7f4552433732314d657461646174613a2055524920717565727920666f72206e6f60008201527f6e6578697374656e7420746f6b656e0000000000000000000000000000000000602082015250565b7f4552433732313a20617070726f76616c20746f2063757272656e74206f776e6560008201527f7200000000000000000000000000000000000000000000000000000000000000602082015250565b7f4552433732313a207472616e736665722063616c6c6572206973206e6f74206f60008201527f776e6572206e6f7220617070726f766564000000000000000000000000000000602082015250565b7f455243373231456e756d657261626c653a20676c6f62616c20696e646578206f60008201527f7574206f6620626f756e64730000000000000000000000000000000000000000602082015250565b7f4e65656420746f20706179207570210000000000000000000000000000000000600082015250565b61381281613064565b811461381d57600080fd5b50565b61382981613076565b811461383457600080fd5b50565b61384081613082565b811461384b57600080fd5b50565b613857816130ce565b811461386257600080fd5b5056fea2646970667358221220756b7a3bcf00d9b757af6882ca8c8ba58cc06402c43411c8e0aadecd3b0584a764736f6c63430008040033",
  "linkReferences": {},
  "deployedLinkReferences": {}
}