{
  "_format": "hh-sol-artifact-1",
  "contractName": "NftMsg",
  "sourceName": "contracts/NftMsg.sol",
  "abi": [
    {
      "inputs": [],
      "stateMutability": "nonpayable",
      "type": "constructor"
    },
    {
      "anonymous": false,
      "inputs": [
        {
          "indexed": true,
          "internalType": "address",
          "name": "owner",
          "type": "address"
        },
        {
          "indexed": true,
          "internalType": "address",
          "name": "approved",
          "type": "address"
        },
        {
          "indexed": true,
          "internalType": "uint256",
          "name": "tokenId",
          "type": "uint256"
        }
      ],
      "name": "Approval",
      "type": "event"
    },
    {
      "anonymous": false,
      "inputs": [
        {
          "indexed": true,
          "internalType": "address",
          "name": "owner",
          "type": "address"
        },
        {
          "indexed": true,
          "internalType": "address",
          "name": "operator",
          "type": "address"
        },
        {
          "indexed": false,
          "internalType": "bool",
          "name": "approved",
          "type": "bool"
        }
      ],
      "name": "ApprovalForAll",
      "type": "event"
    },
    {
      "anonymous": false,
      "inputs": [
        {
          "indexed": true,
          "internalType": "address",
          "name": "previousOwner",
          "type": "address"
        },
        {
          "indexed": true,
          "internalType": "address",
          "name": "newOwner",
          "type": "address"
        }
      ],
      "name": "OwnershipTransferred",
      "type": "event"
    },
    {
      "anonymous": false,
      "inputs": [
        {
          "indexed": true,
          "internalType": "address",
          "name": "from",
          "type": "address"
        },
        {
          "indexed": true,
          "internalType": "address",
          "name": "to",
          "type": "address"
        },
        {
          "indexed": true,
          "internalType": "uint256",
          "name": "tokenId",
          "type": "uint256"
        }
      ],
      "name": "Transfer",
      "type": "event"
    },
    {
      "inputs": [
        {
          "internalType": "address",
          "name": "to",
          "type": "address"
        },
        {
          "internalType": "uint256",
          "name": "tokenId",
          "type": "uint256"
        }
      ],
      "name": "approve",
      "outputs": [],
      "stateMutability": "nonpayable",
      "type": "function"
    },
    {
      "inputs": [
        {
          "internalType": "address",
          "name": "owner",
          "type": "address"
        }
      ],
      "name": "balanceOf",
      "outputs": [
        {
          "internalType": "uint256",
          "name": "",
          "type": "uint256"
        }
      ],
      "stateMutability": "view",
      "type": "function"
    },
    {
      "inputs": [
        {
          "internalType": "uint256",
          "name": "tokenId",
          "type": "uint256"
        }
      ],
      "name": "getApproved",
      "outputs": [
        {
          "internalType": "address",
          "name": "",
          "type": "address"
        }
      ],
      "stateMutability": "view",
      "type": "function"
    },
    {
      "inputs": [
        {
          "internalType": "address",
          "name": "owner",
          "type": "address"
        },
        {
          "internalType": "address",
          "name": "operator",
          "type": "address"
        }
      ],
      "name": "isApprovedForAll",
      "outputs": [
        {
          "internalType": "bool",
          "name": "",
          "type": "bool"
        }
      ],
      "stateMutability": "view",
      "type": "function"
    },
    {
      "inputs": [
        {
          "internalType": "string",
          "name": "_uri",
          "type": "string"
        }
      ],
      "name": "isContentOwned",
      "outputs": [
        {
          "internalType": "address",
          "name": "",
          "type": "address"
        }
      ],
      "stateMutability": "view",
      "type": "function"
    },
    {
      "inputs": [],
      "name": "name",
      "outputs": [
        {
          "internalType": "string",
          "name": "",
          "type": "string"
        }
      ],
      "stateMutability": "view",
      "type": "function"
    },
    {
      "inputs": [],
      "name": "owner",
      "outputs": [
        {
          "internalType": "address",
          "name": "",
          "type": "address"
        }
      ],
      "stateMutability": "view",
      "type": "function"
    },
    {
      "inputs": [
        {
          "internalType": "uint256",
          "name": "tokenId",
          "type": "uint256"
        }
      ],
      "name": "ownerOf",
      "outputs": [
        {
          "internalType": "address",
          "name": "",
          "type": "address"
        }
      ],
      "stateMutability": "view",
      "type": "function"
    },
    {
      "inputs": [],
      "name": "renounceOwnership",
      "outputs": [],
      "stateMutability": "nonpayable",
      "type": "function"
    },
    {
      "inputs": [
        {
          "internalType": "address",
          "name": "_to",
          "type": "address"
        },
        {
          "internalType": "string",
          "name": "_uri",
          "type": "string"
        }
      ],
      "name": "safeMint",
      "outputs": [
        {
          "internalType": "uint256",
          "name": "",
          "type": "uint256"
        }
      ],
      "stateMutability": "nonpayable",
      "type": "function"
    },
    {
      "inputs": [
        {
          "internalType": "address",
          "name": "from",
          "type": "address"
        },
        {
          "internalType": "address",
          "name": "to",
          "type": "address"
        },
        {
          "internalType": "uint256",
          "name": "tokenId",
          "type": "uint256"
        }
      ],
      "name": "safeTransferFrom",
      "outputs": [],
      "stateMutability": "nonpayable",
      "type": "function"
    },
    {
      "inputs": [
        {
          "internalType": "address",
          "name": "from",
          "type": "address"
        },
        {
          "internalType": "address",
          "name": "to",
          "type": "address"
        },
        {
          "internalType": "uint256",
          "name": "tokenId",
          "type": "uint256"
        },
        {
          "internalType": "bytes",
          "name": "_data",
          "type": "bytes"
        }
      ],
      "name": "safeTransferFrom",
      "outputs": [],
      "stateMutability": "nonpayable",
      "type": "function"
    },
    {
      "inputs": [
        {
          "internalType": "address",
          "name": "operator",
          "type": "address"
        },
        {
          "internalType": "bool",
          "name": "approved",
          "type": "bool"
        }
      ],
      "name": "setApprovalForAll",
      "outputs": [],
      "stateMutability": "nonpayable",
      "type": "function"
    },
    {
      "inputs": [
        {
          "internalType": "address",
          "name": "_to",
          "type": "address"
        },
        {
          "internalType": "string",
          "name": "_uri",
          "type": "string"
        }
      ],
      "name": "specialMint",
      "outputs": [
        {
          "internalType": "uint256",
          "name": "",
          "type": "uint256"
        }
      ],
      "stateMutability": "payable",
      "type": "function"
    },
    {
      "inputs": [
        {
          "internalType": "bytes4",
          "name": "interfaceId",
          "type": "bytes4"
        }
      ],
      "name": "supportsInterface",
      "outputs": [
        {
          "internalType": "bool",
          "name": "",
          "type": "bool"
        }
      ],
      "stateMutability": "view",
      "type": "function"
    },
    {
      "inputs": [],
      "name": "symbol",
      "outputs": [
        {
          "internalType": "string",
          "name": "",
          "type": "string"
        }
      ],
      "stateMutability": "view",
      "type": "function"
    },
    {
      "inputs": [
        {
          "internalType": "uint256",
          "name": "tokenId",
          "type": "uint256"
        }
      ],
      "name": "tokenURI",
      "outputs": [
        {
          "internalType": "string",
          "name": "",
          "type": "string"
        }
      ],
      "stateMutability": "view",
      "type": "function"
    },
    {
      "inputs": [
        {
          "internalType": "address",
          "name": "from",
          "type": "address"
        },
        {
          "internalType": "address",
          "name": "to",
          "type": "address"
        },
        {
          "internalType": "uint256",
          "name": "tokenId",
          "type": "uint256"
        }
      ],
      "name": "transferFrom",
      "outputs": [],
      "stateMutability": "nonpayable",
      "type": "function"
    },
    {
      "inputs": [
        {
          "internalType": "address",
          "name": "newOwner",
          "type": "address"
        }
      ],
      "name": "transferOwnership",
      "outputs": [],
      "stateMutability": "nonpayable",
      "type": "function"
    }
  ],
  "bytecode": "0x60806040523480156200001157600080fd5b506040518060400160405280600681526020017f4e46546d736700000000000000000000000000000000000000000000000000008152506040518060400160405280600481526020017f4e4d534700000000000000000000000000000000000000000000000000000000815250816000908051906020019062000096929190620001a6565b508060019080519060200190620000af929190620001a6565b505050620000d2620000c6620000d860201b60201c565b620000e060201b60201c565b620002bb565b600033905090565b6000600760009054906101000a900473ffffffffffffffffffffffffffffffffffffffff16905081600760006101000a81548173ffffffffffffffffffffffffffffffffffffffff021916908373ffffffffffffffffffffffffffffffffffffffff1602179055508173ffffffffffffffffffffffffffffffffffffffff168173ffffffffffffffffffffffffffffffffffffffff167f8be0079c531659141344cd1fd0a4f28419497f9722a3daafe3b4186f6b6457e060405160405180910390a35050565b828054620001b49062000256565b90600052602060002090601f016020900481019282620001d8576000855562000224565b82601f10620001f357805160ff191683800117855562000224565b8280016001018555821562000224579182015b828111156200022357825182559160200191906001019062000206565b5b50905062000233919062000237565b5090565b5b808211156200025257600081600090555060010162000238565b5090565b600060028204905060018216806200026f57607f821691505b602082108114156200028657620002856200028c565b5b50919050565b7f4e487b7100000000000000000000000000000000000000000000000000000000600052602260045260246000fd5b6133b880620002cb6000396000f3fe6080604052600436106101145760003560e01c80638da5cb5b116100a0578063c87b56dd11610064578063c87b56dd146103af578063d204c45e146103ec578063e985e9c514610429578063f2fde38b14610466578063ff019dc61461048f57610114565b80638da5cb5b146102ca57806395d89b41146102f55780639f1cabc614610320578063a22cb4651461035d578063b88d4fde1461038657610114565b806323b872dd116100e757806323b872dd146101e757806342842e0e146102105780636352211e1461023957806370a0823114610276578063715018a6146102b357610114565b806301ffc9a71461011957806306fdde0314610156578063081812fc14610181578063095ea7b3146101be575b600080fd5b34801561012557600080fd5b50610140600480360381019061013b91906122a3565b6104bf565b60405161014d919061276a565b60405180910390f35b34801561016257600080fd5b5061016b6105a1565b6040516101789190612785565b60405180910390f35b34801561018d57600080fd5b506101a860048036038101906101a39190612336565b610633565b6040516101b59190612703565b60405180910390f35b3480156101ca57600080fd5b506101e560048036038101906101e09190612267565b6106b8565b005b3480156101f357600080fd5b5061020e6004803603810190610209919061210d565b6107d0565b005b34801561021c57600080fd5b506102376004803603810190610232919061210d565b610830565b005b34801561024557600080fd5b50610260600480360381019061025b9190612336565b610850565b60405161026d9190612703565b60405180910390f35b34801561028257600080fd5b5061029d600480360381019061029891906120a8565b610902565b6040516102aa9190612a07565b60405180910390f35b3480156102bf57600080fd5b506102c86109ba565b005b3480156102d657600080fd5b506102df610a42565b6040516102ec9190612703565b60405180910390f35b34801561030157600080fd5b5061030a610a6c565b6040516103179190612785565b60405180910390f35b34801561032c57600080fd5b50610347600480360381019061034291906122f5565b610afe565b6040516103549190612703565b60405180910390f35b34801561036957600080fd5b50610384600480360381019061037f91906121d7565b610b46565b005b34801561039257600080fd5b506103ad60048036038101906103a8919061215c565b610b5c565b005b3480156103bb57600080fd5b506103d660048036038101906103d19190612336565b610bbe565b6040516103e39190612785565b60405180910390f35b3480156103f857600080fd5b50610413600480360381019061040e9190612213565b610bd0565b6040516104209190612a07565b60405180910390f35b34801561043557600080fd5b50610450600480360381019061044b91906120d1565b610c64565b60405161045d919061276a565b60405180910390f35b34801561047257600080fd5b5061048d600480360381019061048891906120a8565b610cf8565b005b6104a960048036038101906104a49190612213565b610df0565b6040516104b69190612a07565b60405180910390f35b60007f80ac58cd000000000000000000000000000000000000000000000000000000007bffffffffffffffffffffffffffffffffffffffffffffffffffffffff1916827bffffffffffffffffffffffffffffffffffffffffffffffffffffffff1916148061058a57507f5b5e139f000000000000000000000000000000000000000000000000000000007bffffffffffffffffffffffffffffffffffffffffffffffffffffffff1916827bffffffffffffffffffffffffffffffffffffffffffffffffffffffff1916145b8061059a575061059982610ecf565b5b9050919050565b6060600080546105b090612c5d565b80601f01602080910402602001604051908101604052809291908181526020018280546105dc90612c5d565b80156106295780601f106105fe57610100808354040283529160200191610629565b820191906000526020600020905b81548152906001019060200180831161060c57829003601f168201915b5050505050905090565b600061063e82610f39565b61067d576040517f08c379a000000000000000000000000000000000000000000000000000000000815260040161067490612947565b60405180910390fd5b6004600083815260200190815260200160002060009054906101000a900473ffffffffffffffffffffffffffffffffffffffff169050919050565b60006106c382610850565b90508073ffffffffffffffffffffffffffffffffffffffff168373ffffffffffffffffffffffffffffffffffffffff161415610734576040517f08c379a000000000000000000000000000000000000000000000000000000000815260040161072b906129a7565b60405180910390fd5b8073ffffffffffffffffffffffffffffffffffffffff16610753610fa5565b73ffffffffffffffffffffffffffffffffffffffff16148061078257506107818161077c610fa5565b610c64565b5b6107c1576040517f08c379a00000000000000000000000000000000000000000000000000000000081526004016107b890612887565b60405180910390fd5b6107cb8383610fad565b505050565b6107e16107db610fa5565b82611066565b610820576040517f08c379a0000000000000000000000000000000000000000000000000000000008152600401610817906129c7565b60405180910390fd5b61082b838383611144565b505050565b61084b83838360405180602001604052806000815250610b5c565b505050565b6000806002600084815260200190815260200160002060009054906101000a900473ffffffffffffffffffffffffffffffffffffffff169050600073ffffffffffffffffffffffffffffffffffffffff168173ffffffffffffffffffffffffffffffffffffffff1614156108f9576040517f08c379a00000000000000000000000000000000000000000000000000000000081526004016108f0906128c7565b60405180910390fd5b80915050919050565b60008073ffffffffffffffffffffffffffffffffffffffff168273ffffffffffffffffffffffffffffffffffffffff161415610973576040517f08c379a000000000000000000000000000000000000000000000000000000000815260040161096a906128a7565b60405180910390fd5b600360008373ffffffffffffffffffffffffffffffffffffffff1673ffffffffffffffffffffffffffffffffffffffff168152602001908152602001600020549050919050565b6109c2610fa5565b73ffffffffffffffffffffffffffffffffffffffff166109e0610a42565b73ffffffffffffffffffffffffffffffffffffffff1614610a36576040517f08c379a0000000000000000000000000000000000000000000000000000000008152600401610a2d90612967565b60405180910390fd5b610a4060006113ab565b565b6000600760009054906101000a900473ffffffffffffffffffffffffffffffffffffffff16905090565b606060018054610a7b90612c5d565b80601f0160208091040260200160405190810160405280929190818152602001828054610aa790612c5d565b8015610af45780601f10610ac957610100808354040283529160200191610af4565b820191906000526020600020905b815481529060010190602001808311610ad757829003601f168201915b5050505050905090565b6000600982604051610b1091906126c8565b908152602001604051809103902060009054906101000a900473ffffffffffffffffffffffffffffffffffffffff169050919050565b610b58610b51610fa5565b8383611471565b5050565b610b6d610b67610fa5565b83611066565b610bac576040517f08c379a0000000000000000000000000000000000000000000000000000000008152600401610ba3906129c7565b60405180910390fd5b610bb8848484846115de565b50505050565b6060610bc98261163a565b9050919050565b600080610bdd600861178c565b9050610be9600861179a565b610bf384826117b0565b610bfd81846117ce565b83600984604051610c0e91906126c8565b908152602001604051809103902060006101000a81548173ffffffffffffffffffffffffffffffffffffffff021916908373ffffffffffffffffffffffffffffffffffffffff1602179055508091505092915050565b6000600560008473ffffffffffffffffffffffffffffffffffffffff1673ffffffffffffffffffffffffffffffffffffffff16815260200190815260200160002060008373ffffffffffffffffffffffffffffffffffffffff1673ffffffffffffffffffffffffffffffffffffffff16815260200190815260200160002060009054906101000a900460ff16905092915050565b610d00610fa5565b73ffffffffffffffffffffffffffffffffffffffff16610d1e610a42565b73ffffffffffffffffffffffffffffffffffffffff1614610d74576040517f08c379a0000000000000000000000000000000000000000000000000000000008152600401610d6b90612967565b60405180910390fd5b600073ffffffffffffffffffffffffffffffffffffffff168173ffffffffffffffffffffffffffffffffffffffff161415610de4576040517f08c379a0000000000000000000000000000000000000000000000000000000008152600401610ddb906127c7565b60405180910390fd5b610ded816113ab565b50565b600066038d7ea4c68000341015610e3c576040517f08c379a0000000000000000000000000000000000000000000000000000000008152600401610e33906129e7565b60405180910390fd5b6000610e48600861178c565b9050610e54600861179a565b610e5e8482611842565b610e6881846117ce565b83600984604051610e7991906126c8565b908152602001604051809103902060006101000a81548173ffffffffffffffffffffffffffffffffffffffff021916908373ffffffffffffffffffffffffffffffffffffffff1602179055508091505092915050565b60007f01ffc9a7000000000000000000000000000000000000000000000000000000007bffffffffffffffffffffffffffffffffffffffffffffffffffffffff1916827bffffffffffffffffffffffffffffffffffffffffffffffffffffffff1916149050919050565b60008073ffffffffffffffffffffffffffffffffffffffff166002600084815260200190815260200160002060009054906101000a900473ffffffffffffffffffffffffffffffffffffffff1673ffffffffffffffffffffffffffffffffffffffff1614159050919050565b600033905090565b816004600083815260200190815260200160002060006101000a81548173ffffffffffffffffffffffffffffffffffffffff021916908373ffffffffffffffffffffffffffffffffffffffff160217905550808273ffffffffffffffffffffffffffffffffffffffff1661102083610850565b73ffffffffffffffffffffffffffffffffffffffff167f8c5be1e5ebec7d5bd14f71427d1e84f3dd0314c0f7b2291e5b200ac8c7c3b92560405160405180910390a45050565b600061107182610f39565b6110b0576040517f08c379a00000000000000000000000000000000000000000000000000000000081526004016110a790612867565b60405180910390fd5b60006110bb83610850565b90508073ffffffffffffffffffffffffffffffffffffffff168473ffffffffffffffffffffffffffffffffffffffff16148061112a57508373ffffffffffffffffffffffffffffffffffffffff1661111284610633565b73ffffffffffffffffffffffffffffffffffffffff16145b8061113b575061113a8185610c64565b5b91505092915050565b8273ffffffffffffffffffffffffffffffffffffffff1661116482610850565b73ffffffffffffffffffffffffffffffffffffffff16146111ba576040517f08c379a00000000000000000000000000000000000000000000000000000000081526004016111b1906127e7565b60405180910390fd5b600073ffffffffffffffffffffffffffffffffffffffff168273ffffffffffffffffffffffffffffffffffffffff16141561122a576040517f08c379a000000000000000000000000000000000000000000000000000000000815260040161122190612827565b60405180910390fd5b611235838383611a1c565b611240600082610fad565b6001600360008573ffffffffffffffffffffffffffffffffffffffff1673ffffffffffffffffffffffffffffffffffffffff16815260200190815260200160002060008282546112909190612b73565b925050819055506001600360008473ffffffffffffffffffffffffffffffffffffffff1673ffffffffffffffffffffffffffffffffffffffff16815260200190815260200160002060008282546112e79190612aec565b92505081905550816002600083815260200190815260200160002060006101000a81548173ffffffffffffffffffffffffffffffffffffffff021916908373ffffffffffffffffffffffffffffffffffffffff160217905550808273ffffffffffffffffffffffffffffffffffffffff168473ffffffffffffffffffffffffffffffffffffffff167fddf252ad1be2c89b69c2b068fc378daa952ba7f163c4a11628f55a4df523b3ef60405160405180910390a46113a6838383611a21565b505050565b6000600760009054906101000a900473ffffffffffffffffffffffffffffffffffffffff16905081600760006101000a81548173ffffffffffffffffffffffffffffffffffffffff021916908373ffffffffffffffffffffffffffffffffffffffff1602179055508173ffffffffffffffffffffffffffffffffffffffff168173ffffffffffffffffffffffffffffffffffffffff167f8be0079c531659141344cd1fd0a4f28419497f9722a3daafe3b4186f6b6457e060405160405180910390a35050565b8173ffffffffffffffffffffffffffffffffffffffff168373ffffffffffffffffffffffffffffffffffffffff1614156114e0576040517f08c379a00000000000000000000000000000000000000000000000000000000081526004016114d790612847565b60405180910390fd5b80600560008573ffffffffffffffffffffffffffffffffffffffff1673ffffffffffffffffffffffffffffffffffffffff16815260200190815260200160002060008473ffffffffffffffffffffffffffffffffffffffff1673ffffffffffffffffffffffffffffffffffffffff16815260200190815260200160002060006101000a81548160ff0219169083151502179055508173ffffffffffffffffffffffffffffffffffffffff168373ffffffffffffffffffffffffffffffffffffffff167f17307eab39ab6107e8899845ad3d59bd9653f200f220920489ca2b5937696c31836040516115d1919061276a565b60405180910390a3505050565b6115e9848484611144565b6115f584848484611a26565b611634576040517f08c379a000000000000000000000000000000000000000000000000000000000815260040161162b906127a7565b60405180910390fd5b50505050565b606061164582610f39565b611684576040517f08c379a000000000000000000000000000000000000000000000000000000000815260040161167b90612927565b60405180910390fd5b60006006600084815260200190815260200160002080546116a490612c5d565b80601f01602080910402602001604051908101604052809291908181526020018280546116d090612c5d565b801561171d5780601f106116f25761010080835404028352916020019161171d565b820191906000526020600020905b81548152906001019060200180831161170057829003601f168201915b50505050509050600061172e611bbd565b9050600081511415611744578192505050611787565b6000825111156117795780826040516020016117619291906126df565b60405160208183030381529060405292505050611787565b61178284611bfa565b925050505b919050565b600081600001549050919050565b6001816000016000828254019250508190555050565b6117ca828260405180602001604052806000815250611ca1565b5050565b6117d782610f39565b611816576040517f08c379a000000000000000000000000000000000000000000000000000000000815260040161180d906128e7565b60405180910390fd5b8060066000848152602001908152602001600020908051906020019061183d929190611ecc565b505050565b600073ffffffffffffffffffffffffffffffffffffffff168273ffffffffffffffffffffffffffffffffffffffff1614156118b2576040517f08c379a00000000000000000000000000000000000000000000000000000000081526004016118a990612907565b60405180910390fd5b6118bb81610f39565b156118fb576040517f08c379a00000000000000000000000000000000000000000000000000000000081526004016118f290612807565b60405180910390fd5b61190760008383611a1c565b6001600360008473ffffffffffffffffffffffffffffffffffffffff1673ffffffffffffffffffffffffffffffffffffffff16815260200190815260200160002060008282546119579190612aec565b92505081905550816002600083815260200190815260200160002060006101000a81548173ffffffffffffffffffffffffffffffffffffffff021916908373ffffffffffffffffffffffffffffffffffffffff160217905550808273ffffffffffffffffffffffffffffffffffffffff16600073ffffffffffffffffffffffffffffffffffffffff167fddf252ad1be2c89b69c2b068fc378daa952ba7f163c4a11628f55a4df523b3ef60405160405180910390a4611a1860008383611a21565b5050565b505050565b505050565b6000611a478473ffffffffffffffffffffffffffffffffffffffff16611cfc565b15611bb0578373ffffffffffffffffffffffffffffffffffffffff1663150b7a02611a70610fa5565b8786866040518563ffffffff1660e01b8152600401611a92949392919061271e565b602060405180830381600087803b158015611aac57600080fd5b505af1925050508015611add57506040513d601f19601f82011682018060405250810190611ada91906122cc565b60015b611b60573d8060008114611b0d576040519150601f19603f3d011682016040523d82523d6000602084013e611b12565b606091505b50600081511415611b58576040517f08c379a0000000000000000000000000000000000000000000000000000000008152600401611b4f906127a7565b60405180910390fd5b805181602001fd5b63150b7a0260e01b7bffffffffffffffffffffffffffffffffffffffffffffffffffffffff1916817bffffffffffffffffffffffffffffffffffffffffffffffffffffffff191614915050611bb5565b600190505b949350505050565b60606040518060400160405280600781526020017f697066733a2f2f00000000000000000000000000000000000000000000000000815250905090565b6060611c0582610f39565b611c44576040517f08c379a0000000000000000000000000000000000000000000000000000000008152600401611c3b90612987565b60405180910390fd5b6000611c4e611bbd565b90506000815111611c6e5760405180602001604052806000815250611c99565b80611c7884611d1f565b604051602001611c899291906126df565b6040516020818303038152906040525b915050919050565b611cab8383611842565b611cb86000848484611a26565b611cf7576040517f08c379a0000000000000000000000000000000000000000000000000000000008152600401611cee906127a7565b60405180910390fd5b505050565b6000808273ffffffffffffffffffffffffffffffffffffffff163b119050919050565b60606000821415611d67576040518060400160405280600181526020017f30000000000000000000000000000000000000000000000000000000000000008152509050611ec7565b600082905060005b60008214611d99578080611d8290612cc0565b915050600a82611d929190612b42565b9150611d6f565b60008167ffffffffffffffff811115611ddb577f4e487b7100000000000000000000000000000000000000000000000000000000600052604160045260246000fd5b6040519080825280601f01601f191660200182016040528015611e0d5781602001600182028036833780820191505090505b5090505b60008514611ec057600182611e269190612b73565b9150600a85611e359190612d09565b6030611e419190612aec565b60f81b818381518110611e7d577f4e487b7100000000000000000000000000000000000000000000000000000000600052603260045260246000fd5b60200101907effffffffffffffffffffffffffffffffffffffffffffffffffffffffffffff1916908160001a905350600a85611eb99190612b42565b9450611e11565b8093505050505b919050565b828054611ed890612c5d565b90600052602060002090601f016020900481019282611efa5760008555611f41565b82601f10611f1357805160ff1916838001178555611f41565b82800160010185558215611f41579182015b82811115611f40578251825591602001919060010190611f25565b5b509050611f4e9190611f52565b5090565b5b80821115611f6b576000816000905550600101611f53565b5090565b6000611f82611f7d84612a47565b612a22565b905082815260208101848484011115611f9a57600080fd5b611fa5848285612c1b565b509392505050565b6000611fc0611fbb84612a78565b612a22565b905082815260208101848484011115611fd857600080fd5b611fe3848285612c1b565b509392505050565b600081359050611ffa81613326565b92915050565b60008135905061200f8161333d565b92915050565b60008135905061202481613354565b92915050565b60008151905061203981613354565b92915050565b600082601f83011261205057600080fd5b8135612060848260208601611f6f565b91505092915050565b600082601f83011261207a57600080fd5b813561208a848260208601611fad565b91505092915050565b6000813590506120a28161336b565b92915050565b6000602082840312156120ba57600080fd5b60006120c884828501611feb565b91505092915050565b600080604083850312156120e457600080fd5b60006120f285828601611feb565b925050602061210385828601611feb565b9150509250929050565b60008060006060848603121561212257600080fd5b600061213086828701611feb565b935050602061214186828701611feb565b925050604061215286828701612093565b9150509250925092565b6000806000806080858703121561217257600080fd5b600061218087828801611feb565b945050602061219187828801611feb565b93505060406121a287828801612093565b925050606085013567ffffffffffffffff8111156121bf57600080fd5b6121cb8782880161203f565b91505092959194509250565b600080604083850312156121ea57600080fd5b60006121f885828601611feb565b925050602061220985828601612000565b9150509250929050565b6000806040838503121561222657600080fd5b600061223485828601611feb565b925050602083013567ffffffffffffffff81111561225157600080fd5b61225d85828601612069565b9150509250929050565b6000806040838503121561227a57600080fd5b600061228885828601611feb565b925050602061229985828601612093565b9150509250929050565b6000602082840312156122b557600080fd5b60006122c384828501612015565b91505092915050565b6000602082840312156122de57600080fd5b60006122ec8482850161202a565b91505092915050565b60006020828403121561230757600080fd5b600082013567ffffffffffffffff81111561232157600080fd5b61232d84828501612069565b91505092915050565b60006020828403121561234857600080fd5b600061235684828501612093565b91505092915050565b61236881612ba7565b82525050565b61237781612bb9565b82525050565b600061238882612aa9565b6123928185612abf565b93506123a2818560208601612c2a565b6123ab81612df6565b840191505092915050565b60006123c182612ab4565b6123cb8185612ad0565b93506123db818560208601612c2a565b6123e481612df6565b840191505092915050565b60006123fa82612ab4565b6124048185612ae1565b9350612414818560208601612c2a565b80840191505092915050565b600061242d603283612ad0565b915061243882612e07565b604082019050919050565b6000612450602683612ad0565b915061245b82612e56565b604082019050919050565b6000612473602583612ad0565b915061247e82612ea5565b604082019050919050565b6000612496601c83612ad0565b91506124a182612ef4565b602082019050919050565b60006124b9602483612ad0565b91506124c482612f1d565b604082019050919050565b60006124dc601983612ad0565b91506124e782612f6c565b602082019050919050565b60006124ff602c83612ad0565b915061250a82612f95565b604082019050919050565b6000612522603883612ad0565b915061252d82612fe4565b604082019050919050565b6000612545602a83612ad0565b915061255082613033565b604082019050919050565b6000612568602983612ad0565b915061257382613082565b604082019050919050565b600061258b602e83612ad0565b9150612596826130d1565b604082019050919050565b60006125ae602083612ad0565b91506125b982613120565b602082019050919050565b60006125d1603183612ad0565b91506125dc82613149565b604082019050919050565b60006125f4602c83612ad0565b91506125ff82613198565b604082019050919050565b6000612617602083612ad0565b9150612622826131e7565b602082019050919050565b600061263a602f83612ad0565b915061264582613210565b604082019050919050565b600061265d602183612ad0565b91506126688261325f565b604082019050919050565b6000612680603183612ad0565b915061268b826132ae565b604082019050919050565b60006126a3600f83612ad0565b91506126ae826132fd565b602082019050919050565b6126c281612c11565b82525050565b60006126d482846123ef565b915081905092915050565b60006126eb82856123ef565b91506126f782846123ef565b91508190509392505050565b6000602082019050612718600083018461235f565b92915050565b6000608082019050612733600083018761235f565b612740602083018661235f565b61274d60408301856126b9565b818103606083015261275f818461237d565b905095945050505050565b600060208201905061277f600083018461236e565b92915050565b6000602082019050818103600083015261279f81846123b6565b905092915050565b600060208201905081810360008301526127c081612420565b9050919050565b600060208201905081810360008301526127e081612443565b9050919050565b6000602082019050818103600083015261280081612466565b9050919050565b6000602082019050818103600083015261282081612489565b9050919050565b60006020820190508181036000830152612840816124ac565b9050919050565b60006020820190508181036000830152612860816124cf565b9050919050565b60006020820190508181036000830152612880816124f2565b9050919050565b600060208201905081810360008301526128a081612515565b9050919050565b600060208201905081810360008301526128c081612538565b9050919050565b600060208201905081810360008301526128e08161255b565b9050919050565b600060208201905081810360008301526129008161257e565b9050919050565b60006020820190508181036000830152612920816125a1565b9050919050565b60006020820190508181036000830152612940816125c4565b9050919050565b60006020820190508181036000830152612960816125e7565b9050919050565b600060208201905081810360008301526129808161260a565b9050919050565b600060208201905081810360008301526129a08161262d565b9050919050565b600060208201905081810360008301526129c081612650565b9050919050565b600060208201905081810360008301526129e081612673565b9050919050565b60006020820190508181036000830152612a0081612696565b9050919050565b6000602082019050612a1c60008301846126b9565b92915050565b6000612a2c612a3d565b9050612a388282612c8f565b919050565b6000604051905090565b600067ffffffffffffffff821115612a6257612a61612dc7565b5b612a6b82612df6565b9050602081019050919050565b600067ffffffffffffffff821115612a9357612a92612dc7565b5b612a9c82612df6565b9050602081019050919050565b600081519050919050565b600081519050919050565b600082825260208201905092915050565b600082825260208201905092915050565b600081905092915050565b6000612af782612c11565b9150612b0283612c11565b9250827fffffffffffffffffffffffffffffffffffffffffffffffffffffffffffffffff03821115612b3757612b36612d3a565b5b828201905092915050565b6000612b4d82612c11565b9150612b5883612c11565b925082612b6857612b67612d69565b5b828204905092915050565b6000612b7e82612c11565b9150612b8983612c11565b925082821015612b9c57612b9b612d3a565b5b828203905092915050565b6000612bb282612bf1565b9050919050565b60008115159050919050565b60007fffffffff0000000000000000000000000000000000000000000000000000000082169050919050565b600073ffffffffffffffffffffffffffffffffffffffff82169050919050565b6000819050919050565b82818337600083830152505050565b60005b83811015612c48578082015181840152602081019050612c2d565b83811115612c57576000848401525b50505050565b60006002820490506001821680612c7557607f821691505b60208210811415612c8957612c88612d98565b5b50919050565b612c9882612df6565b810181811067ffffffffffffffff82111715612cb757612cb6612dc7565b5b80604052505050565b6000612ccb82612c11565b91507fffffffffffffffffffffffffffffffffffffffffffffffffffffffffffffffff821415612cfe57612cfd612d3a565b5b600182019050919050565b6000612d1482612c11565b9150612d1f83612c11565b925082612d2f57612d2e612d69565b5b828206905092915050565b7f4e487b7100000000000000000000000000000000000000000000000000000000600052601160045260246000fd5b7f4e487b7100000000000000000000000000000000000000000000000000000000600052601260045260246000fd5b7f4e487b7100000000000000000000000000000000000000000000000000000000600052602260045260246000fd5b7f4e487b7100000000000000000000000000000000000000000000000000000000600052604160045260246000fd5b6000601f19601f8301169050919050565b7f4552433732313a207472616e7366657220746f206e6f6e20455243373231526560008201527f63656976657220696d706c656d656e7465720000000000000000000000000000602082015250565b7f4f776e61626c653a206e6577206f776e657220697320746865207a65726f206160008201527f6464726573730000000000000000000000000000000000000000000000000000602082015250565b7f4552433732313a207472616e736665722066726f6d20696e636f72726563742060008201527f6f776e6572000000000000000000000000000000000000000000000000000000602082015250565b7f4552433732313a20746f6b656e20616c7265616479206d696e74656400000000600082015250565b7f4552433732313a207472616e7366657220746f20746865207a65726f2061646460008201527f7265737300000000000000000000000000000000000000000000000000000000602082015250565b7f4552433732313a20617070726f766520746f2063616c6c657200000000000000600082015250565b7f4552433732313a206f70657261746f7220717565727920666f72206e6f6e657860008201527f697374656e7420746f6b656e0000000000000000000000000000000000000000602082015250565b7f4552433732313a20617070726f76652063616c6c6572206973206e6f74206f7760008201527f6e6572206e6f7220617070726f76656420666f7220616c6c0000000000000000602082015250565b7f4552433732313a2062616c616e636520717565727920666f7220746865207a6560008201527f726f206164647265737300000000000000000000000000000000000000000000602082015250565b7f4552433732313a206f776e657220717565727920666f72206e6f6e657869737460008201527f656e7420746f6b656e0000000000000000000000000000000000000000000000602082015250565b7f45524337323155524953746f726167653a2055524920736574206f66206e6f6e60008201527f6578697374656e7420746f6b656e000000000000000000000000000000000000602082015250565b7f4552433732313a206d696e7420746f20746865207a65726f2061646472657373600082015250565b7f45524337323155524953746f726167653a2055524920717565727920666f722060008201527f6e6f6e6578697374656e7420746f6b656e000000000000000000000000000000602082015250565b7f4552433732313a20617070726f76656420717565727920666f72206e6f6e657860008201527f697374656e7420746f6b656e0000000000000000000000000000000000000000602082015250565b7f4f776e61626c653a2063616c6c6572206973206e6f7420746865206f776e6572600082015250565b7f4552433732314d657461646174613a2055524920717565727920666f72206e6f60008201527f6e6578697374656e7420746f6b656e0000000000000000000000000000000000602082015250565b7f4552433732313a20617070726f76616c20746f2063757272656e74206f776e6560008201527f7200000000000000000000000000000000000000000000000000000000000000602082015250565b7f4552433732313a207472616e736665722063616c6c6572206973206e6f74206f60008201527f776e6572206e6f7220617070726f766564000000000000000000000000000000602082015250565b7f4e65656420746f20706179207570210000000000000000000000000000000000600082015250565b61332f81612ba7565b811461333a57600080fd5b50565b61334681612bb9565b811461335157600080fd5b50565b61335d81612bc5565b811461336857600080fd5b50565b61337481612c11565b811461337f57600080fd5b5056fea2646970667358221220bc12ecfc12029aa0f0325df2b046db122ad33191f1e48fc0da53f027482bcad564736f6c63430008040033",
  "linkReferences": {},
  "deployedLinkReferences": {}
}