{
  "_format": "hh-sol-artifact-1",
  "contractName": "LoveMessageTestnet",
  "sourceName": "contracts/LoveMessageTestnet.sol",
  "abi": [
    {
      "inputs": [],
      "stateMutability": "nonpayable",
      "type": "constructor"
    },
    {
      "anonymous": false,
      "inputs": [
        {
          "indexed": true,
          "internalType": "address",
          "name": "owner",
          "type": "address"
        },
        {
          "indexed": true,
          "internalType": "address",
          "name": "approved",
          "type": "address"
        },
        {
          "indexed": true,
          "internalType": "uint256",
          "name": "tokenId",
          "type": "uint256"
        }
      ],
      "name": "Approval",
      "type": "event"
    },
    {
      "anonymous": false,
      "inputs": [
        {
          "indexed": true,
          "internalType": "address",
          "name": "owner",
          "type": "address"
        },
        {
          "indexed": true,
          "internalType": "address",
          "name": "operator",
          "type": "address"
        },
        {
          "indexed": false,
          "internalType": "bool",
          "name": "approved",
          "type": "bool"
        }
      ],
      "name": "ApprovalForAll",
      "type": "event"
    },
    {
      "anonymous": false,
      "inputs": [
        {
          "indexed": true,
          "internalType": "address",
          "name": "previousOwner",
          "type": "address"
        },
        {
          "indexed": true,
          "internalType": "address",
          "name": "newOwner",
          "type": "address"
        }
      ],
      "name": "OwnershipTransferred",
      "type": "event"
    },
    {
      "anonymous": false,
      "inputs": [
        {
          "indexed": true,
          "internalType": "address",
          "name": "from",
          "type": "address"
        },
        {
          "indexed": true,
          "internalType": "address",
          "name": "to",
          "type": "address"
        },
        {
          "indexed": true,
          "internalType": "uint256",
          "name": "tokenId",
          "type": "uint256"
        }
      ],
      "name": "Transfer",
      "type": "event"
    },
    {
      "inputs": [
        {
          "internalType": "address",
          "name": "to",
          "type": "address"
        },
        {
          "internalType": "uint256",
          "name": "tokenId",
          "type": "uint256"
        }
      ],
      "name": "approve",
      "outputs": [],
      "stateMutability": "nonpayable",
      "type": "function"
    },
    {
      "inputs": [
        {
          "internalType": "address",
          "name": "owner",
          "type": "address"
        }
      ],
      "name": "balanceOf",
      "outputs": [
        {
          "internalType": "uint256",
          "name": "",
          "type": "uint256"
        }
      ],
      "stateMutability": "view",
      "type": "function"
    },
    {
      "inputs": [
        {
          "internalType": "uint256",
          "name": "tokenId",
          "type": "uint256"
        }
      ],
      "name": "getApproved",
      "outputs": [
        {
          "internalType": "address",
          "name": "",
          "type": "address"
        }
      ],
      "stateMutability": "view",
      "type": "function"
    },
    {
      "inputs": [
        {
          "internalType": "address",
          "name": "owner",
          "type": "address"
        },
        {
          "internalType": "address",
          "name": "operator",
          "type": "address"
        }
      ],
      "name": "isApprovedForAll",
      "outputs": [
        {
          "internalType": "bool",
          "name": "",
          "type": "bool"
        }
      ],
      "stateMutability": "view",
      "type": "function"
    },
    {
      "inputs": [
        {
          "internalType": "string",
          "name": "uri",
          "type": "string"
        }
      ],
      "name": "isContentOwned",
      "outputs": [
        {
          "internalType": "bool",
          "name": "",
          "type": "bool"
        }
      ],
      "stateMutability": "view",
      "type": "function"
    },
    {
      "inputs": [],
      "name": "name",
      "outputs": [
        {
          "internalType": "string",
          "name": "",
          "type": "string"
        }
      ],
      "stateMutability": "view",
      "type": "function"
    },
    {
      "inputs": [],
      "name": "owner",
      "outputs": [
        {
          "internalType": "address",
          "name": "",
          "type": "address"
        }
      ],
      "stateMutability": "view",
      "type": "function"
    },
    {
      "inputs": [
        {
          "internalType": "uint256",
          "name": "tokenId",
          "type": "uint256"
        }
      ],
      "name": "ownerOf",
      "outputs": [
        {
          "internalType": "address",
          "name": "",
          "type": "address"
        }
      ],
      "stateMutability": "view",
      "type": "function"
    },
    {
      "inputs": [
        {
          "internalType": "address",
          "name": "recipient",
          "type": "address"
        },
        {
          "internalType": "string",
          "name": "metadataURI",
          "type": "string"
        }
      ],
      "name": "payToMint",
      "outputs": [
        {
          "internalType": "uint256",
          "name": "",
          "type": "uint256"
        }
      ],
      "stateMutability": "payable",
      "type": "function"
    },
    {
      "inputs": [],
      "name": "renounceOwnership",
      "outputs": [],
      "stateMutability": "nonpayable",
      "type": "function"
    },
    {
      "inputs": [
        {
          "internalType": "address",
          "name": "to",
          "type": "address"
        },
        {
          "internalType": "string",
          "name": "uri",
          "type": "string"
        }
      ],
      "name": "safeMint",
      "outputs": [
        {
          "internalType": "uint256",
          "name": "",
          "type": "uint256"
        }
      ],
      "stateMutability": "nonpayable",
      "type": "function"
    },
    {
      "inputs": [
        {
          "internalType": "address",
          "name": "from",
          "type": "address"
        },
        {
          "internalType": "address",
          "name": "to",
          "type": "address"
        },
        {
          "internalType": "uint256",
          "name": "tokenId",
          "type": "uint256"
        }
      ],
      "name": "safeTransferFrom",
      "outputs": [],
      "stateMutability": "nonpayable",
      "type": "function"
    },
    {
      "inputs": [
        {
          "internalType": "address",
          "name": "from",
          "type": "address"
        },
        {
          "internalType": "address",
          "name": "to",
          "type": "address"
        },
        {
          "internalType": "uint256",
          "name": "tokenId",
          "type": "uint256"
        },
        {
          "internalType": "bytes",
          "name": "_data",
          "type": "bytes"
        }
      ],
      "name": "safeTransferFrom",
      "outputs": [],
      "stateMutability": "nonpayable",
      "type": "function"
    },
    {
      "inputs": [
        {
          "internalType": "address",
          "name": "operator",
          "type": "address"
        },
        {
          "internalType": "bool",
          "name": "approved",
          "type": "bool"
        }
      ],
      "name": "setApprovalForAll",
      "outputs": [],
      "stateMutability": "nonpayable",
      "type": "function"
    },
    {
      "inputs": [
        {
          "internalType": "bytes4",
          "name": "interfaceId",
          "type": "bytes4"
        }
      ],
      "name": "supportsInterface",
      "outputs": [
        {
          "internalType": "bool",
          "name": "",
          "type": "bool"
        }
      ],
      "stateMutability": "view",
      "type": "function"
    },
    {
      "inputs": [],
      "name": "symbol",
      "outputs": [
        {
          "internalType": "string",
          "name": "",
          "type": "string"
        }
      ],
      "stateMutability": "view",
      "type": "function"
    },
    {
      "inputs": [
        {
          "internalType": "uint256",
          "name": "tokenId",
          "type": "uint256"
        }
      ],
      "name": "tokenURI",
      "outputs": [
        {
          "internalType": "string",
          "name": "",
          "type": "string"
        }
      ],
      "stateMutability": "view",
      "type": "function"
    },
    {
      "inputs": [
        {
          "internalType": "address",
          "name": "from",
          "type": "address"
        },
        {
          "internalType": "address",
          "name": "to",
          "type": "address"
        },
        {
          "internalType": "uint256",
          "name": "tokenId",
          "type": "uint256"
        }
      ],
      "name": "transferFrom",
      "outputs": [],
      "stateMutability": "nonpayable",
      "type": "function"
    },
    {
      "inputs": [
        {
          "internalType": "address",
          "name": "newOwner",
          "type": "address"
        }
      ],
      "name": "transferOwnership",
      "outputs": [],
      "stateMutability": "nonpayable",
      "type": "function"
    }
  ],
  "bytecode": "0x60806040523480156200001157600080fd5b506040518060400160405280600c81526020017f4c6f7665204d65737361676500000000000000000000000000000000000000008152506040518060400160405280600381526020017f4c564d0000000000000000000000000000000000000000000000000000000000815250816000908051906020019062000096929190620001a6565b508060019080519060200190620000af929190620001a6565b505050620000d2620000c6620000d860201b60201c565b620000e060201b60201c565b620002bb565b600033905090565b6000600760009054906101000a900473ffffffffffffffffffffffffffffffffffffffff16905081600760006101000a81548173ffffffffffffffffffffffffffffffffffffffff021916908373ffffffffffffffffffffffffffffffffffffffff1602179055508173ffffffffffffffffffffffffffffffffffffffff168173ffffffffffffffffffffffffffffffffffffffff167f8be0079c531659141344cd1fd0a4f28419497f9722a3daafe3b4186f6b6457e060405160405180910390a35050565b828054620001b49062000256565b90600052602060002090601f016020900481019282620001d8576000855562000224565b82601f10620001f357805160ff191683800117855562000224565b8280016001018555821562000224579182015b828111156200022357825182559160200191906001019062000206565b5b50905062000233919062000237565b5090565b5b808211156200025257600081600090555060010162000238565b5090565b600060028204905060018216806200026f57607f821691505b602082108114156200028657620002856200028c565b5b50919050565b7f4e487b7100000000000000000000000000000000000000000000000000000000600052602260045260246000fd5b61348480620002cb6000396000f3fe6080604052600436106101145760003560e01c8063715018a6116100a0578063b88d4fde11610064578063b88d4fde146103b6578063c87b56dd146103df578063d204c45e1461041c578063e985e9c514610459578063f2fde38b1461049657610114565b8063715018a6146102e35780638da5cb5b146102fa57806395d89b41146103255780639f1cabc614610350578063a22cb4651461038d57610114565b806323b872dd116100e757806323b872dd146101e757806342842e0e14610210578063615fd9e2146102395780636352211e1461026957806370a08231146102a657610114565b806301ffc9a71461011957806306fdde0314610156578063081812fc14610181578063095ea7b3146101be575b600080fd5b34801561012557600080fd5b50610140600480360381019061013b9190612303565b6104bf565b60405161014d91906127ed565b60405180910390f35b34801561016257600080fd5b5061016b6105a1565b6040516101789190612808565b60405180910390f35b34801561018d57600080fd5b506101a860048036038101906101a39190612396565b610633565b6040516101b59190612786565b60405180910390f35b3480156101ca57600080fd5b506101e560048036038101906101e091906122c7565b6106b8565b005b3480156101f357600080fd5b5061020e6004803603810190610209919061216d565b6107d0565b005b34801561021c57600080fd5b506102376004803603810190610232919061216d565b610830565b005b610253600480360381019061024e9190612273565b610850565b6040516102609190612aaa565b60405180910390f35b34801561027557600080fd5b50610290600480360381019061028b9190612396565b61097c565b60405161029d9190612786565b60405180910390f35b3480156102b257600080fd5b506102cd60048036038101906102c89190612108565b610a2e565b6040516102da9190612aaa565b60405180910390f35b3480156102ef57600080fd5b506102f8610ae6565b005b34801561030657600080fd5b5061030f610b6e565b60405161031c9190612786565b60405180910390f35b34801561033157600080fd5b5061033a610b98565b6040516103479190612808565b60405180910390f35b34801561035c57600080fd5b5061037760048036038101906103729190612355565b610c2a565b60405161038491906127ed565b60405180910390f35b34801561039957600080fd5b506103b460048036038101906103af9190612237565b610c65565b005b3480156103c257600080fd5b506103dd60048036038101906103d891906121bc565b610c7b565b005b3480156103eb57600080fd5b5061040660048036038101906104019190612396565b610cdd565b6040516104139190612808565b60405180910390f35b34801561042857600080fd5b50610443600480360381019061043e9190612273565b610cef565b6040516104509190612aaa565b60405180910390f35b34801561046557600080fd5b50610480600480360381019061047b9190612131565b610da3565b60405161048d91906127ed565b60405180910390f35b3480156104a257600080fd5b506104bd60048036038101906104b89190612108565b610e37565b005b60007f80ac58cd000000000000000000000000000000000000000000000000000000007bffffffffffffffffffffffffffffffffffffffffffffffffffffffff1916827bffffffffffffffffffffffffffffffffffffffffffffffffffffffff1916148061058a57507f5b5e139f000000000000000000000000000000000000000000000000000000007bffffffffffffffffffffffffffffffffffffffffffffffffffffffff1916827bffffffffffffffffffffffffffffffffffffffffffffffffffffffff1916145b8061059a575061059982610f2f565b5b9050919050565b6060600080546105b090612d00565b80601f01602080910402602001604051908101604052809291908181526020018280546105dc90612d00565b80156106295780601f106105fe57610100808354040283529160200191610629565b820191906000526020600020905b81548152906001019060200180831161060c57829003601f168201915b5050505050905090565b600061063e82610f99565b61067d576040517f08c379a0000000000000000000000000000000000000000000000000000000008152600401610674906129ca565b60405180910390fd5b6004600083815260200190815260200160002060009054906101000a900473ffffffffffffffffffffffffffffffffffffffff169050919050565b60006106c38261097c565b90508073ffffffffffffffffffffffffffffffffffffffff168373ffffffffffffffffffffffffffffffffffffffff161415610734576040517f08c379a000000000000000000000000000000000000000000000000000000000815260040161072b90612a2a565b60405180910390fd5b8073ffffffffffffffffffffffffffffffffffffffff16610753611005565b73ffffffffffffffffffffffffffffffffffffffff16148061078257506107818161077c611005565b610da3565b5b6107c1576040517f08c379a00000000000000000000000000000000000000000000000000000000081526004016107b89061290a565b60405180910390fd5b6107cb838361100d565b505050565b6107e16107db611005565b826110c6565b610820576040517f08c379a000000000000000000000000000000000000000000000000000000000815260040161081790612a4a565b60405180910390fd5b61082b8383836111a4565b505050565b61084b83838360405180602001604052806000815250610c7b565b505050565b60006001600983604051610864919061274b565b908152602001604051809103902060009054906101000a900460ff1660ff1614156108c4576040517f08c379a00000000000000000000000000000000000000000000000000000000081526004016108bb90612a6a565b60405180910390fd5b66038d7ea4c6800034101561090e576040517f08c379a000000000000000000000000000000000000000000000000000000000815260040161090590612a8a565b60405180910390fd5b600061091a600861140b565b90506109266008611419565b6001600984604051610938919061274b565b908152602001604051809103902060006101000a81548160ff021916908360ff160217905550610968848261142f565b6109728184611609565b8091505092915050565b6000806002600084815260200190815260200160002060009054906101000a900473ffffffffffffffffffffffffffffffffffffffff169050600073ffffffffffffffffffffffffffffffffffffffff168173ffffffffffffffffffffffffffffffffffffffff161415610a25576040517f08c379a0000000000000000000000000000000000000000000000000000000008152600401610a1c9061294a565b60405180910390fd5b80915050919050565b60008073ffffffffffffffffffffffffffffffffffffffff168273ffffffffffffffffffffffffffffffffffffffff161415610a9f576040517f08c379a0000000000000000000000000000000000000000000000000000000008152600401610a969061292a565b60405180910390fd5b600360008373ffffffffffffffffffffffffffffffffffffffff1673ffffffffffffffffffffffffffffffffffffffff168152602001908152602001600020549050919050565b610aee611005565b73ffffffffffffffffffffffffffffffffffffffff16610b0c610b6e565b73ffffffffffffffffffffffffffffffffffffffff1614610b62576040517f08c379a0000000000000000000000000000000000000000000000000000000008152600401610b59906129ea565b60405180910390fd5b610b6c600061167d565b565b6000600760009054906101000a900473ffffffffffffffffffffffffffffffffffffffff16905090565b606060018054610ba790612d00565b80601f0160208091040260200160405190810160405280929190818152602001828054610bd390612d00565b8015610c205780601f10610bf557610100808354040283529160200191610c20565b820191906000526020600020905b815481529060010190602001808311610c0357829003601f168201915b5050505050905090565b60006001600983604051610c3e919061274b565b908152602001604051809103902060009054906101000a900460ff1660ff16149050919050565b610c77610c70611005565b8383611743565b5050565b610c8c610c86611005565b836110c6565b610ccb576040517f08c379a0000000000000000000000000000000000000000000000000000000008152600401610cc290612a4a565b60405180910390fd5b610cd7848484846118b0565b50505050565b6060610ce88261190c565b9050919050565b6000610cf9611005565b73ffffffffffffffffffffffffffffffffffffffff16610d17610b6e565b73ffffffffffffffffffffffffffffffffffffffff1614610d6d576040517f08c379a0000000000000000000000000000000000000000000000000000000008152600401610d64906129ea565b60405180910390fd5b6000610d79600861140b565b9050610d856008611419565b610d8f8482611a5e565b610d998184611609565b8091505092915050565b6000600560008473ffffffffffffffffffffffffffffffffffffffff1673ffffffffffffffffffffffffffffffffffffffff16815260200190815260200160002060008373ffffffffffffffffffffffffffffffffffffffff1673ffffffffffffffffffffffffffffffffffffffff16815260200190815260200160002060009054906101000a900460ff16905092915050565b610e3f611005565b73ffffffffffffffffffffffffffffffffffffffff16610e5d610b6e565b73ffffffffffffffffffffffffffffffffffffffff1614610eb3576040517f08c379a0000000000000000000000000000000000000000000000000000000008152600401610eaa906129ea565b60405180910390fd5b600073ffffffffffffffffffffffffffffffffffffffff168173ffffffffffffffffffffffffffffffffffffffff161415610f23576040517f08c379a0000000000000000000000000000000000000000000000000000000008152600401610f1a9061284a565b60405180910390fd5b610f2c8161167d565b50565b60007f01ffc9a7000000000000000000000000000000000000000000000000000000007bffffffffffffffffffffffffffffffffffffffffffffffffffffffff1916827bffffffffffffffffffffffffffffffffffffffffffffffffffffffff1916149050919050565b60008073ffffffffffffffffffffffffffffffffffffffff166002600084815260200190815260200160002060009054906101000a900473ffffffffffffffffffffffffffffffffffffffff1673ffffffffffffffffffffffffffffffffffffffff1614159050919050565b600033905090565b816004600083815260200190815260200160002060006101000a81548173ffffffffffffffffffffffffffffffffffffffff021916908373ffffffffffffffffffffffffffffffffffffffff160217905550808273ffffffffffffffffffffffffffffffffffffffff166110808361097c565b73ffffffffffffffffffffffffffffffffffffffff167f8c5be1e5ebec7d5bd14f71427d1e84f3dd0314c0f7b2291e5b200ac8c7c3b92560405160405180910390a45050565b60006110d182610f99565b611110576040517f08c379a0000000000000000000000000000000000000000000000000000000008152600401611107906128ea565b60405180910390fd5b600061111b8361097c565b90508073ffffffffffffffffffffffffffffffffffffffff168473ffffffffffffffffffffffffffffffffffffffff16148061118a57508373ffffffffffffffffffffffffffffffffffffffff1661117284610633565b73ffffffffffffffffffffffffffffffffffffffff16145b8061119b575061119a8185610da3565b5b91505092915050565b8273ffffffffffffffffffffffffffffffffffffffff166111c48261097c565b73ffffffffffffffffffffffffffffffffffffffff161461121a576040517f08c379a00000000000000000000000000000000000000000000000000000000081526004016112119061286a565b60405180910390fd5b600073ffffffffffffffffffffffffffffffffffffffff168273ffffffffffffffffffffffffffffffffffffffff16141561128a576040517f08c379a0000000000000000000000000000000000000000000000000000000008152600401611281906128aa565b60405180910390fd5b611295838383611a7c565b6112a060008261100d565b6001600360008573ffffffffffffffffffffffffffffffffffffffff1673ffffffffffffffffffffffffffffffffffffffff16815260200190815260200160002060008282546112f09190612c16565b925050819055506001600360008473ffffffffffffffffffffffffffffffffffffffff1673ffffffffffffffffffffffffffffffffffffffff16815260200190815260200160002060008282546113479190612b8f565b92505081905550816002600083815260200190815260200160002060006101000a81548173ffffffffffffffffffffffffffffffffffffffff021916908373ffffffffffffffffffffffffffffffffffffffff160217905550808273ffffffffffffffffffffffffffffffffffffffff168473ffffffffffffffffffffffffffffffffffffffff167fddf252ad1be2c89b69c2b068fc378daa952ba7f163c4a11628f55a4df523b3ef60405160405180910390a4611406838383611a81565b505050565b600081600001549050919050565b6001816000016000828254019250508190555050565b600073ffffffffffffffffffffffffffffffffffffffff168273ffffffffffffffffffffffffffffffffffffffff16141561149f576040517f08c379a00000000000000000000000000000000000000000000000000000000081526004016114969061298a565b60405180910390fd5b6114a881610f99565b156114e8576040517f08c379a00000000000000000000000000000000000000000000000000000000081526004016114df9061288a565b60405180910390fd5b6114f460008383611a7c565b6001600360008473ffffffffffffffffffffffffffffffffffffffff1673ffffffffffffffffffffffffffffffffffffffff16815260200190815260200160002060008282546115449190612b8f565b92505081905550816002600083815260200190815260200160002060006101000a81548173ffffffffffffffffffffffffffffffffffffffff021916908373ffffffffffffffffffffffffffffffffffffffff160217905550808273ffffffffffffffffffffffffffffffffffffffff16600073ffffffffffffffffffffffffffffffffffffffff167fddf252ad1be2c89b69c2b068fc378daa952ba7f163c4a11628f55a4df523b3ef60405160405180910390a461160560008383611a81565b5050565b61161282610f99565b611651576040517f08c379a00000000000000000000000000000000000000000000000000000000081526004016116489061296a565b60405180910390fd5b80600660008481526020019081526020016000209080519060200190611678929190611f2c565b505050565b6000600760009054906101000a900473ffffffffffffffffffffffffffffffffffffffff16905081600760006101000a81548173ffffffffffffffffffffffffffffffffffffffff021916908373ffffffffffffffffffffffffffffffffffffffff1602179055508173ffffffffffffffffffffffffffffffffffffffff168173ffffffffffffffffffffffffffffffffffffffff167f8be0079c531659141344cd1fd0a4f28419497f9722a3daafe3b4186f6b6457e060405160405180910390a35050565b8173ffffffffffffffffffffffffffffffffffffffff168373ffffffffffffffffffffffffffffffffffffffff1614156117b2576040517f08c379a00000000000000000000000000000000000000000000000000000000081526004016117a9906128ca565b60405180910390fd5b80600560008573ffffffffffffffffffffffffffffffffffffffff1673ffffffffffffffffffffffffffffffffffffffff16815260200190815260200160002060008473ffffffffffffffffffffffffffffffffffffffff1673ffffffffffffffffffffffffffffffffffffffff16815260200190815260200160002060006101000a81548160ff0219169083151502179055508173ffffffffffffffffffffffffffffffffffffffff168373ffffffffffffffffffffffffffffffffffffffff167f17307eab39ab6107e8899845ad3d59bd9653f200f220920489ca2b5937696c31836040516118a391906127ed565b60405180910390a3505050565b6118bb8484846111a4565b6118c784848484611a86565b611906576040517f08c379a00000000000000000000000000000000000000000000000000000000081526004016118fd9061282a565b60405180910390fd5b50505050565b606061191782610f99565b611956576040517f08c379a000000000000000000000000000000000000000000000000000000000815260040161194d906129aa565b60405180910390fd5b600060066000848152602001908152602001600020805461197690612d00565b80601f01602080910402602001604051908101604052809291908181526020018280546119a290612d00565b80156119ef5780601f106119c4576101008083540402835291602001916119ef565b820191906000526020600020905b8154815290600101906020018083116119d257829003601f168201915b505050505090506000611a00611c1d565b9050600081511415611a16578192505050611a59565b600082511115611a4b578082604051602001611a33929190612762565b60405160208183030381529060405292505050611a59565b611a5484611c5a565b925050505b919050565b611a78828260405180602001604052806000815250611d01565b5050565b505050565b505050565b6000611aa78473ffffffffffffffffffffffffffffffffffffffff16611d5c565b15611c10578373ffffffffffffffffffffffffffffffffffffffff1663150b7a02611ad0611005565b8786866040518563ffffffff1660e01b8152600401611af294939291906127a1565b602060405180830381600087803b158015611b0c57600080fd5b505af1925050508015611b3d57506040513d601f19601f82011682018060405250810190611b3a919061232c565b60015b611bc0573d8060008114611b6d576040519150601f19603f3d011682016040523d82523d6000602084013e611b72565b606091505b50600081511415611bb8576040517f08c379a0000000000000000000000000000000000000000000000000000000008152600401611baf9061282a565b60405180910390fd5b805181602001fd5b63150b7a0260e01b7bffffffffffffffffffffffffffffffffffffffffffffffffffffffff1916817bffffffffffffffffffffffffffffffffffffffffffffffffffffffff191614915050611c15565b600190505b949350505050565b60606040518060400160405280600781526020017f697066733a2f2f00000000000000000000000000000000000000000000000000815250905090565b6060611c6582610f99565b611ca4576040517f08c379a0000000000000000000000000000000000000000000000000000000008152600401611c9b90612a0a565b60405180910390fd5b6000611cae611c1d565b90506000815111611cce5760405180602001604052806000815250611cf9565b80611cd884611d7f565b604051602001611ce9929190612762565b6040516020818303038152906040525b915050919050565b611d0b838361142f565b611d186000848484611a86565b611d57576040517f08c379a0000000000000000000000000000000000000000000000000000000008152600401611d4e9061282a565b60405180910390fd5b505050565b6000808273ffffffffffffffffffffffffffffffffffffffff163b119050919050565b60606000821415611dc7576040518060400160405280600181526020017f30000000000000000000000000000000000000000000000000000000000000008152509050611f27565b600082905060005b60008214611df9578080611de290612d63565b915050600a82611df29190612be5565b9150611dcf565b60008167ffffffffffffffff811115611e3b577f4e487b7100000000000000000000000000000000000000000000000000000000600052604160045260246000fd5b6040519080825280601f01601f191660200182016040528015611e6d5781602001600182028036833780820191505090505b5090505b60008514611f2057600182611e869190612c16565b9150600a85611e959190612dac565b6030611ea19190612b8f565b60f81b818381518110611edd577f4e487b7100000000000000000000000000000000000000000000000000000000600052603260045260246000fd5b60200101907effffffffffffffffffffffffffffffffffffffffffffffffffffffffffffff1916908160001a905350600a85611f199190612be5565b9450611e71565b8093505050505b919050565b828054611f3890612d00565b90600052602060002090601f016020900481019282611f5a5760008555611fa1565b82601f10611f7357805160ff1916838001178555611fa1565b82800160010185558215611fa1579182015b82811115611fa0578251825591602001919060010190611f85565b5b509050611fae9190611fb2565b5090565b5b80821115611fcb576000816000905550600101611fb3565b5090565b6000611fe2611fdd84612aea565b612ac5565b905082815260208101848484011115611ffa57600080fd5b612005848285612cbe565b509392505050565b600061202061201b84612b1b565b612ac5565b90508281526020810184848401111561203857600080fd5b612043848285612cbe565b509392505050565b60008135905061205a816133f2565b92915050565b60008135905061206f81613409565b92915050565b60008135905061208481613420565b92915050565b60008151905061209981613420565b92915050565b600082601f8301126120b057600080fd5b81356120c0848260208601611fcf565b91505092915050565b600082601f8301126120da57600080fd5b81356120ea84826020860161200d565b91505092915050565b60008135905061210281613437565b92915050565b60006020828403121561211a57600080fd5b60006121288482850161204b565b91505092915050565b6000806040838503121561214457600080fd5b60006121528582860161204b565b92505060206121638582860161204b565b9150509250929050565b60008060006060848603121561218257600080fd5b60006121908682870161204b565b93505060206121a18682870161204b565b92505060406121b2868287016120f3565b9150509250925092565b600080600080608085870312156121d257600080fd5b60006121e08782880161204b565b94505060206121f18782880161204b565b9350506040612202878288016120f3565b925050606085013567ffffffffffffffff81111561221f57600080fd5b61222b8782880161209f565b91505092959194509250565b6000806040838503121561224a57600080fd5b60006122588582860161204b565b925050602061226985828601612060565b9150509250929050565b6000806040838503121561228657600080fd5b60006122948582860161204b565b925050602083013567ffffffffffffffff8111156122b157600080fd5b6122bd858286016120c9565b9150509250929050565b600080604083850312156122da57600080fd5b60006122e88582860161204b565b92505060206122f9858286016120f3565b9150509250929050565b60006020828403121561231557600080fd5b600061232384828501612075565b91505092915050565b60006020828403121561233e57600080fd5b600061234c8482850161208a565b91505092915050565b60006020828403121561236757600080fd5b600082013567ffffffffffffffff81111561238157600080fd5b61238d848285016120c9565b91505092915050565b6000602082840312156123a857600080fd5b60006123b6848285016120f3565b91505092915050565b6123c881612c4a565b82525050565b6123d781612c5c565b82525050565b60006123e882612b4c565b6123f28185612b62565b9350612402818560208601612ccd565b61240b81612e99565b840191505092915050565b600061242182612b57565b61242b8185612b73565b935061243b818560208601612ccd565b61244481612e99565b840191505092915050565b600061245a82612b57565b6124648185612b84565b9350612474818560208601612ccd565b80840191505092915050565b600061248d603283612b73565b915061249882612eaa565b604082019050919050565b60006124b0602683612b73565b91506124bb82612ef9565b604082019050919050565b60006124d3602583612b73565b91506124de82612f48565b604082019050919050565b60006124f6601c83612b73565b915061250182612f97565b602082019050919050565b6000612519602483612b73565b915061252482612fc0565b604082019050919050565b600061253c601983612b73565b91506125478261300f565b602082019050919050565b600061255f602c83612b73565b915061256a82613038565b604082019050919050565b6000612582603883612b73565b915061258d82613087565b604082019050919050565b60006125a5602a83612b73565b91506125b0826130d6565b604082019050919050565b60006125c8602983612b73565b91506125d382613125565b604082019050919050565b60006125eb602e83612b73565b91506125f682613174565b604082019050919050565b600061260e602083612b73565b9150612619826131c3565b602082019050919050565b6000612631603183612b73565b915061263c826131ec565b604082019050919050565b6000612654602c83612b73565b915061265f8261323b565b604082019050919050565b6000612677602083612b73565b91506126828261328a565b602082019050919050565b600061269a602f83612b73565b91506126a5826132b3565b604082019050919050565b60006126bd602183612b73565b91506126c882613302565b604082019050919050565b60006126e0603183612b73565b91506126eb82613351565b604082019050919050565b6000612703601383612b73565b915061270e826133a0565b602082019050919050565b6000612726600f83612b73565b9150612731826133c9565b602082019050919050565b61274581612cb4565b82525050565b6000612757828461244f565b915081905092915050565b600061276e828561244f565b915061277a828461244f565b91508190509392505050565b600060208201905061279b60008301846123bf565b92915050565b60006080820190506127b660008301876123bf565b6127c360208301866123bf565b6127d0604083018561273c565b81810360608301526127e281846123dd565b905095945050505050565b600060208201905061280260008301846123ce565b92915050565b600060208201905081810360008301526128228184612416565b905092915050565b6000602082019050818103600083015261284381612480565b9050919050565b60006020820190508181036000830152612863816124a3565b9050919050565b60006020820190508181036000830152612883816124c6565b9050919050565b600060208201905081810360008301526128a3816124e9565b9050919050565b600060208201905081810360008301526128c38161250c565b9050919050565b600060208201905081810360008301526128e38161252f565b9050919050565b6000602082019050818103600083015261290381612552565b9050919050565b6000602082019050818103600083015261292381612575565b9050919050565b6000602082019050818103600083015261294381612598565b9050919050565b60006020820190508181036000830152612963816125bb565b9050919050565b60006020820190508181036000830152612983816125de565b9050919050565b600060208201905081810360008301526129a381612601565b9050919050565b600060208201905081810360008301526129c381612624565b9050919050565b600060208201905081810360008301526129e381612647565b9050919050565b60006020820190508181036000830152612a038161266a565b9050919050565b60006020820190508181036000830152612a238161268d565b9050919050565b60006020820190508181036000830152612a43816126b0565b9050919050565b60006020820190508181036000830152612a63816126d3565b9050919050565b60006020820190508181036000830152612a83816126f6565b9050919050565b60006020820190508181036000830152612aa381612719565b9050919050565b6000602082019050612abf600083018461273c565b92915050565b6000612acf612ae0565b9050612adb8282612d32565b919050565b6000604051905090565b600067ffffffffffffffff821115612b0557612b04612e6a565b5b612b0e82612e99565b9050602081019050919050565b600067ffffffffffffffff821115612b3657612b35612e6a565b5b612b3f82612e99565b9050602081019050919050565b600081519050919050565b600081519050919050565b600082825260208201905092915050565b600082825260208201905092915050565b600081905092915050565b6000612b9a82612cb4565b9150612ba583612cb4565b9250827fffffffffffffffffffffffffffffffffffffffffffffffffffffffffffffffff03821115612bda57612bd9612ddd565b5b828201905092915050565b6000612bf082612cb4565b9150612bfb83612cb4565b925082612c0b57612c0a612e0c565b5b828204905092915050565b6000612c2182612cb4565b9150612c2c83612cb4565b925082821015612c3f57612c3e612ddd565b5b828203905092915050565b6000612c5582612c94565b9050919050565b60008115159050919050565b60007fffffffff0000000000000000000000000000000000000000000000000000000082169050919050565b600073ffffffffffffffffffffffffffffffffffffffff82169050919050565b6000819050919050565b82818337600083830152505050565b60005b83811015612ceb578082015181840152602081019050612cd0565b83811115612cfa576000848401525b50505050565b60006002820490506001821680612d1857607f821691505b60208210811415612d2c57612d2b612e3b565b5b50919050565b612d3b82612e99565b810181811067ffffffffffffffff82111715612d5a57612d59612e6a565b5b80604052505050565b6000612d6e82612cb4565b91507fffffffffffffffffffffffffffffffffffffffffffffffffffffffffffffffff821415612da157612da0612ddd565b5b600182019050919050565b6000612db782612cb4565b9150612dc283612cb4565b925082612dd257612dd1612e0c565b5b828206905092915050565b7f4e487b7100000000000000000000000000000000000000000000000000000000600052601160045260246000fd5b7f4e487b7100000000000000000000000000000000000000000000000000000000600052601260045260246000fd5b7f4e487b7100000000000000000000000000000000000000000000000000000000600052602260045260246000fd5b7f4e487b7100000000000000000000000000000000000000000000000000000000600052604160045260246000fd5b6000601f19601f8301169050919050565b7f4552433732313a207472616e7366657220746f206e6f6e20455243373231526560008201527f63656976657220696d706c656d656e7465720000000000000000000000000000602082015250565b7f4f776e61626c653a206e6577206f776e657220697320746865207a65726f206160008201527f6464726573730000000000000000000000000000000000000000000000000000602082015250565b7f4552433732313a207472616e736665722066726f6d20696e636f72726563742060008201527f6f776e6572000000000000000000000000000000000000000000000000000000602082015250565b7f4552433732313a20746f6b656e20616c7265616479206d696e74656400000000600082015250565b7f4552433732313a207472616e7366657220746f20746865207a65726f2061646460008201527f7265737300000000000000000000000000000000000000000000000000000000602082015250565b7f4552433732313a20617070726f766520746f2063616c6c657200000000000000600082015250565b7f4552433732313a206f70657261746f7220717565727920666f72206e6f6e657860008201527f697374656e7420746f6b656e0000000000000000000000000000000000000000602082015250565b7f4552433732313a20617070726f76652063616c6c6572206973206e6f74206f7760008201527f6e6572206e6f7220617070726f76656420666f7220616c6c0000000000000000602082015250565b7f4552433732313a2062616c616e636520717565727920666f7220746865207a6560008201527f726f206164647265737300000000000000000000000000000000000000000000602082015250565b7f4552433732313a206f776e657220717565727920666f72206e6f6e657869737460008201527f656e7420746f6b656e0000000000000000000000000000000000000000000000602082015250565b7f45524337323155524953746f726167653a2055524920736574206f66206e6f6e60008201527f6578697374656e7420746f6b656e000000000000000000000000000000000000602082015250565b7f4552433732313a206d696e7420746f20746865207a65726f2061646472657373600082015250565b7f45524337323155524953746f726167653a2055524920717565727920666f722060008201527f6e6f6e6578697374656e7420746f6b656e000000000000000000000000000000602082015250565b7f4552433732313a20617070726f76656420717565727920666f72206e6f6e657860008201527f697374656e7420746f6b656e0000000000000000000000000000000000000000602082015250565b7f4f776e61626c653a2063616c6c6572206973206e6f7420746865206f776e6572600082015250565b7f4552433732314d657461646174613a2055524920717565727920666f72206e6f60008201527f6e6578697374656e7420746f6b656e0000000000000000000000000000000000602082015250565b7f4552433732313a20617070726f76616c20746f2063757272656e74206f776e6560008201527f7200000000000000000000000000000000000000000000000000000000000000602082015250565b7f4552433732313a207472616e736665722063616c6c6572206973206e6f74206f60008201527f776e6572206e6f7220617070726f766564000000000000000000000000000000602082015250565b7f4e465420616c7265616479206d696e7465642100000000000000000000000000600082015250565b7f4e65656420746f20706179207570210000000000000000000000000000000000600082015250565b6133fb81612c4a565b811461340657600080fd5b50565b61341281612c5c565b811461341d57600080fd5b50565b61342981612c68565b811461343457600080fd5b50565b61344081612cb4565b811461344b57600080fd5b5056fea2646970667358221220bf10958447a3586c268081c4cc1cf469dbbce6784632f9bb0e305ed657d3981464736f6c63430008040033",
  "linkReferences": {},
  "deployedLinkReferences": {}
}