{
  "_format": "hh-sol-artifact-1",
  "contractName": "NftMsg",
  "sourceName": "contracts/NftMsg.sol",
  "abi": [
    {
      "inputs": [],
      "stateMutability": "nonpayable",
      "type": "constructor"
    },
    {
      "anonymous": false,
      "inputs": [
        {
          "indexed": true,
          "internalType": "address",
          "name": "owner",
          "type": "address"
        },
        {
          "indexed": true,
          "internalType": "address",
          "name": "approved",
          "type": "address"
        },
        {
          "indexed": true,
          "internalType": "uint256",
          "name": "tokenId",
          "type": "uint256"
        }
      ],
      "name": "Approval",
      "type": "event"
    },
    {
      "anonymous": false,
      "inputs": [
        {
          "indexed": true,
          "internalType": "address",
          "name": "owner",
          "type": "address"
        },
        {
          "indexed": true,
          "internalType": "address",
          "name": "operator",
          "type": "address"
        },
        {
          "indexed": false,
          "internalType": "bool",
          "name": "approved",
          "type": "bool"
        }
      ],
      "name": "ApprovalForAll",
      "type": "event"
    },
    {
      "anonymous": false,
      "inputs": [
        {
          "indexed": true,
          "internalType": "address",
          "name": "previousOwner",
          "type": "address"
        },
        {
          "indexed": true,
          "internalType": "address",
          "name": "newOwner",
          "type": "address"
        }
      ],
      "name": "OwnershipTransferred",
      "type": "event"
    },
    {
      "anonymous": false,
      "inputs": [
        {
          "indexed": true,
          "internalType": "address",
          "name": "from",
          "type": "address"
        },
        {
          "indexed": true,
          "internalType": "address",
          "name": "to",
          "type": "address"
        },
        {
          "indexed": true,
          "internalType": "uint256",
          "name": "tokenId",
          "type": "uint256"
        }
      ],
      "name": "Transfer",
      "type": "event"
    },
    {
      "inputs": [
        {
          "internalType": "address",
          "name": "to",
          "type": "address"
        },
        {
          "internalType": "uint256",
          "name": "tokenId",
          "type": "uint256"
        }
      ],
      "name": "approve",
      "outputs": [],
      "stateMutability": "nonpayable",
      "type": "function"
    },
    {
      "inputs": [
        {
          "internalType": "address",
          "name": "owner",
          "type": "address"
        }
      ],
      "name": "balanceOf",
      "outputs": [
        {
          "internalType": "uint256",
          "name": "",
          "type": "uint256"
        }
      ],
      "stateMutability": "view",
      "type": "function"
    },
    {
      "inputs": [
        {
          "internalType": "uint256",
          "name": "tokenId",
          "type": "uint256"
        }
      ],
      "name": "getApproved",
      "outputs": [
        {
          "internalType": "address",
          "name": "",
          "type": "address"
        }
      ],
      "stateMutability": "view",
      "type": "function"
    },
    {
      "inputs": [
        {
          "internalType": "address",
          "name": "owner",
          "type": "address"
        },
        {
          "internalType": "address",
          "name": "operator",
          "type": "address"
        }
      ],
      "name": "isApprovedForAll",
      "outputs": [
        {
          "internalType": "bool",
          "name": "",
          "type": "bool"
        }
      ],
      "stateMutability": "view",
      "type": "function"
    },
    {
      "inputs": [
        {
          "internalType": "string",
          "name": "uri",
          "type": "string"
        }
      ],
      "name": "isContentOwned",
      "outputs": [
        {
          "internalType": "bool",
          "name": "",
          "type": "bool"
        }
      ],
      "stateMutability": "view",
      "type": "function"
    },
    {
      "inputs": [],
      "name": "name",
      "outputs": [
        {
          "internalType": "string",
          "name": "",
          "type": "string"
        }
      ],
      "stateMutability": "view",
      "type": "function"
    },
    {
      "inputs": [],
      "name": "owner",
      "outputs": [
        {
          "internalType": "address",
          "name": "",
          "type": "address"
        }
      ],
      "stateMutability": "view",
      "type": "function"
    },
    {
      "inputs": [
        {
          "internalType": "uint256",
          "name": "tokenId",
          "type": "uint256"
        }
      ],
      "name": "ownerOf",
      "outputs": [
        {
          "internalType": "address",
          "name": "",
          "type": "address"
        }
      ],
      "stateMutability": "view",
      "type": "function"
    },
    {
      "inputs": [],
      "name": "renounceOwnership",
      "outputs": [],
      "stateMutability": "nonpayable",
      "type": "function"
    },
    {
      "inputs": [
        {
          "internalType": "address",
          "name": "to",
          "type": "address"
        },
        {
          "internalType": "string",
          "name": "uri",
          "type": "string"
        }
      ],
      "name": "safeMint",
      "outputs": [
        {
          "internalType": "uint256",
          "name": "",
          "type": "uint256"
        }
      ],
      "stateMutability": "nonpayable",
      "type": "function"
    },
    {
      "inputs": [
        {
          "internalType": "address",
          "name": "from",
          "type": "address"
        },
        {
          "internalType": "address",
          "name": "to",
          "type": "address"
        },
        {
          "internalType": "uint256",
          "name": "tokenId",
          "type": "uint256"
        }
      ],
      "name": "safeTransferFrom",
      "outputs": [],
      "stateMutability": "nonpayable",
      "type": "function"
    },
    {
      "inputs": [
        {
          "internalType": "address",
          "name": "from",
          "type": "address"
        },
        {
          "internalType": "address",
          "name": "to",
          "type": "address"
        },
        {
          "internalType": "uint256",
          "name": "tokenId",
          "type": "uint256"
        },
        {
          "internalType": "bytes",
          "name": "_data",
          "type": "bytes"
        }
      ],
      "name": "safeTransferFrom",
      "outputs": [],
      "stateMutability": "nonpayable",
      "type": "function"
    },
    {
      "inputs": [
        {
          "internalType": "address",
          "name": "operator",
          "type": "address"
        },
        {
          "internalType": "bool",
          "name": "approved",
          "type": "bool"
        }
      ],
      "name": "setApprovalForAll",
      "outputs": [],
      "stateMutability": "nonpayable",
      "type": "function"
    },
    {
      "inputs": [
        {
          "internalType": "address",
          "name": "recipient",
          "type": "address"
        },
        {
          "internalType": "string",
          "name": "metadataURI",
          "type": "string"
        }
      ],
      "name": "specialMint",
      "outputs": [
        {
          "internalType": "uint256",
          "name": "",
          "type": "uint256"
        }
      ],
      "stateMutability": "payable",
      "type": "function"
    },
    {
      "inputs": [
        {
          "internalType": "bytes4",
          "name": "interfaceId",
          "type": "bytes4"
        }
      ],
      "name": "supportsInterface",
      "outputs": [
        {
          "internalType": "bool",
          "name": "",
          "type": "bool"
        }
      ],
      "stateMutability": "view",
      "type": "function"
    },
    {
      "inputs": [],
      "name": "symbol",
      "outputs": [
        {
          "internalType": "string",
          "name": "",
          "type": "string"
        }
      ],
      "stateMutability": "view",
      "type": "function"
    },
    {
      "inputs": [
        {
          "internalType": "uint256",
          "name": "tokenId",
          "type": "uint256"
        }
      ],
      "name": "tokenURI",
      "outputs": [
        {
          "internalType": "string",
          "name": "",
          "type": "string"
        }
      ],
      "stateMutability": "view",
      "type": "function"
    },
    {
      "inputs": [
        {
          "internalType": "address",
          "name": "from",
          "type": "address"
        },
        {
          "internalType": "address",
          "name": "to",
          "type": "address"
        },
        {
          "internalType": "uint256",
          "name": "tokenId",
          "type": "uint256"
        }
      ],
      "name": "transferFrom",
      "outputs": [],
      "stateMutability": "nonpayable",
      "type": "function"
    },
    {
      "inputs": [
        {
          "internalType": "address",
          "name": "newOwner",
          "type": "address"
        }
      ],
      "name": "transferOwnership",
      "outputs": [],
      "stateMutability": "nonpayable",
      "type": "function"
    }
  ],
  "bytecode": "0x60806040523480156200001157600080fd5b506040518060400160405280600681526020017f4e46546d736700000000000000000000000000000000000000000000000000008152506040518060400160405280600481526020017f4e4d534700000000000000000000000000000000000000000000000000000000815250816000908051906020019062000096929190620001a6565b508060019080519060200190620000af929190620001a6565b505050620000d2620000c6620000d860201b60201c565b620000e060201b60201c565b620002bb565b600033905090565b6000600760009054906101000a900473ffffffffffffffffffffffffffffffffffffffff16905081600760006101000a81548173ffffffffffffffffffffffffffffffffffffffff021916908373ffffffffffffffffffffffffffffffffffffffff1602179055508173ffffffffffffffffffffffffffffffffffffffff168173ffffffffffffffffffffffffffffffffffffffff167f8be0079c531659141344cd1fd0a4f28419497f9722a3daafe3b4186f6b6457e060405160405180910390a35050565b828054620001b49062000256565b90600052602060002090601f016020900481019282620001d8576000855562000224565b82601f10620001f357805160ff191683800117855562000224565b8280016001018555821562000224579182015b828111156200022357825182559160200191906001019062000206565b5b50905062000233919062000237565b5090565b5b808211156200025257600081600090555060010162000238565b5090565b600060028204905060018216806200026f57607f821691505b602082108114156200028657620002856200028c565b5b50919050565b7f4e487b7100000000000000000000000000000000000000000000000000000000600052602260045260246000fd5b61340780620002cb6000396000f3fe6080604052600436106101145760003560e01c80638da5cb5b116100a0578063c87b56dd11610064578063c87b56dd146103af578063d204c45e146103ec578063e985e9c514610429578063f2fde38b14610466578063ff019dc61461048f57610114565b80638da5cb5b146102ca57806395d89b41146102f55780639f1cabc614610320578063a22cb4651461035d578063b88d4fde1461038657610114565b806323b872dd116100e757806323b872dd146101e757806342842e0e146102105780636352211e1461023957806370a0823114610276578063715018a6146102b357610114565b806301ffc9a71461011957806306fdde0314610156578063081812fc14610181578063095ea7b3146101be575b600080fd5b34801561012557600080fd5b50610140600480360381019061013b9190612286565b6104bf565b60405161014d9190612770565b60405180910390f35b34801561016257600080fd5b5061016b6105a1565b604051610178919061278b565b60405180910390f35b34801561018d57600080fd5b506101a860048036038101906101a39190612319565b610633565b6040516101b59190612709565b60405180910390f35b3480156101ca57600080fd5b506101e560048036038101906101e0919061224a565b6106b8565b005b3480156101f357600080fd5b5061020e600480360381019061020991906120f0565b6107d0565b005b34801561021c57600080fd5b50610237600480360381019061023291906120f0565b610830565b005b34801561024557600080fd5b50610260600480360381019061025b9190612319565b610850565b60405161026d9190612709565b60405180910390f35b34801561028257600080fd5b5061029d6004803603810190610298919061208b565b610902565b6040516102aa9190612a2d565b60405180910390f35b3480156102bf57600080fd5b506102c86109ba565b005b3480156102d657600080fd5b506102df610a42565b6040516102ec9190612709565b60405180910390f35b34801561030157600080fd5b5061030a610a6c565b604051610317919061278b565b60405180910390f35b34801561032c57600080fd5b50610347600480360381019061034291906122d8565b610afe565b6040516103549190612770565b60405180910390f35b34801561036957600080fd5b50610384600480360381019061037f91906121ba565b610b39565b005b34801561039257600080fd5b506103ad60048036038101906103a8919061213f565b610b4f565b005b3480156103bb57600080fd5b506103d660048036038101906103d19190612319565b610bb1565b6040516103e3919061278b565b60405180910390f35b3480156103f857600080fd5b50610413600480360381019061040e91906121f6565b610bc3565b6040516104209190612a2d565b60405180910390f35b34801561043557600080fd5b50610450600480360381019061044b91906120b4565b610bfa565b60405161045d9190612770565b60405180910390f35b34801561047257600080fd5b5061048d6004803603810190610488919061208b565b610c8e565b005b6104a960048036038101906104a491906121f6565b610d86565b6040516104b69190612a2d565b60405180910390f35b60007f80ac58cd000000000000000000000000000000000000000000000000000000007bffffffffffffffffffffffffffffffffffffffffffffffffffffffff1916827bffffffffffffffffffffffffffffffffffffffffffffffffffffffff1916148061058a57507f5b5e139f000000000000000000000000000000000000000000000000000000007bffffffffffffffffffffffffffffffffffffffffffffffffffffffff1916827bffffffffffffffffffffffffffffffffffffffffffffffffffffffff1916145b8061059a575061059982610eb2565b5b9050919050565b6060600080546105b090612c83565b80601f01602080910402602001604051908101604052809291908181526020018280546105dc90612c83565b80156106295780601f106105fe57610100808354040283529160200191610629565b820191906000526020600020905b81548152906001019060200180831161060c57829003601f168201915b5050505050905090565b600061063e82610f1c565b61067d576040517f08c379a00000000000000000000000000000000000000000000000000000000081526004016106749061294d565b60405180910390fd5b6004600083815260200190815260200160002060009054906101000a900473ffffffffffffffffffffffffffffffffffffffff169050919050565b60006106c382610850565b90508073ffffffffffffffffffffffffffffffffffffffff168373ffffffffffffffffffffffffffffffffffffffff161415610734576040517f08c379a000000000000000000000000000000000000000000000000000000000815260040161072b906129ad565b60405180910390fd5b8073ffffffffffffffffffffffffffffffffffffffff16610753610f88565b73ffffffffffffffffffffffffffffffffffffffff16148061078257506107818161077c610f88565b610bfa565b5b6107c1576040517f08c379a00000000000000000000000000000000000000000000000000000000081526004016107b89061288d565b60405180910390fd5b6107cb8383610f90565b505050565b6107e16107db610f88565b82611049565b610820576040517f08c379a0000000000000000000000000000000000000000000000000000000008152600401610817906129cd565b60405180910390fd5b61082b838383611127565b505050565b61084b83838360405180602001604052806000815250610b4f565b505050565b6000806002600084815260200190815260200160002060009054906101000a900473ffffffffffffffffffffffffffffffffffffffff169050600073ffffffffffffffffffffffffffffffffffffffff168173ffffffffffffffffffffffffffffffffffffffff1614156108f9576040517f08c379a00000000000000000000000000000000000000000000000000000000081526004016108f0906128cd565b60405180910390fd5b80915050919050565b60008073ffffffffffffffffffffffffffffffffffffffff168273ffffffffffffffffffffffffffffffffffffffff161415610973576040517f08c379a000000000000000000000000000000000000000000000000000000000815260040161096a906128ad565b60405180910390fd5b600360008373ffffffffffffffffffffffffffffffffffffffff1673ffffffffffffffffffffffffffffffffffffffff168152602001908152602001600020549050919050565b6109c2610f88565b73ffffffffffffffffffffffffffffffffffffffff166109e0610a42565b73ffffffffffffffffffffffffffffffffffffffff1614610a36576040517f08c379a0000000000000000000000000000000000000000000000000000000008152600401610a2d9061296d565b60405180910390fd5b610a40600061138e565b565b6000600760009054906101000a900473ffffffffffffffffffffffffffffffffffffffff16905090565b606060018054610a7b90612c83565b80601f0160208091040260200160405190810160405280929190818152602001828054610aa790612c83565b8015610af45780601f10610ac957610100808354040283529160200191610af4565b820191906000526020600020905b815481529060010190602001808311610ad757829003601f168201915b5050505050905090565b60006001600983604051610b1291906126ce565b908152602001604051809103902060009054906101000a900460ff1660ff16149050919050565b610b4b610b44610f88565b8383611454565b5050565b610b60610b5a610f88565b83611049565b610b9f576040517f08c379a0000000000000000000000000000000000000000000000000000000008152600401610b96906129cd565b60405180910390fd5b610bab848484846115c1565b50505050565b6060610bbc8261161d565b9050919050565b600080610bd0600861176f565b9050610bdc600861177d565b610be68482611793565b610bf081846117b1565b8091505092915050565b6000600560008473ffffffffffffffffffffffffffffffffffffffff1673ffffffffffffffffffffffffffffffffffffffff16815260200190815260200160002060008373ffffffffffffffffffffffffffffffffffffffff1673ffffffffffffffffffffffffffffffffffffffff16815260200190815260200160002060009054906101000a900460ff16905092915050565b610c96610f88565b73ffffffffffffffffffffffffffffffffffffffff16610cb4610a42565b73ffffffffffffffffffffffffffffffffffffffff1614610d0a576040517f08c379a0000000000000000000000000000000000000000000000000000000008152600401610d019061296d565b60405180910390fd5b600073ffffffffffffffffffffffffffffffffffffffff168173ffffffffffffffffffffffffffffffffffffffff161415610d7a576040517f08c379a0000000000000000000000000000000000000000000000000000000008152600401610d71906127cd565b60405180910390fd5b610d838161138e565b50565b60006001600983604051610d9a91906126ce565b908152602001604051809103902060009054906101000a900460ff1660ff161415610dfa576040517f08c379a0000000000000000000000000000000000000000000000000000000008152600401610df1906129ed565b60405180910390fd5b66038d7ea4c68000341015610e44576040517f08c379a0000000000000000000000000000000000000000000000000000000008152600401610e3b90612a0d565b60405180910390fd5b6000610e50600861176f565b9050610e5c600861177d565b6001600984604051610e6e91906126ce565b908152602001604051809103902060006101000a81548160ff021916908360ff160217905550610e9e8482611825565b610ea881846117b1565b8091505092915050565b60007f01ffc9a7000000000000000000000000000000000000000000000000000000007bffffffffffffffffffffffffffffffffffffffffffffffffffffffff1916827bffffffffffffffffffffffffffffffffffffffffffffffffffffffff1916149050919050565b60008073ffffffffffffffffffffffffffffffffffffffff166002600084815260200190815260200160002060009054906101000a900473ffffffffffffffffffffffffffffffffffffffff1673ffffffffffffffffffffffffffffffffffffffff1614159050919050565b600033905090565b816004600083815260200190815260200160002060006101000a81548173ffffffffffffffffffffffffffffffffffffffff021916908373ffffffffffffffffffffffffffffffffffffffff160217905550808273ffffffffffffffffffffffffffffffffffffffff1661100383610850565b73ffffffffffffffffffffffffffffffffffffffff167f8c5be1e5ebec7d5bd14f71427d1e84f3dd0314c0f7b2291e5b200ac8c7c3b92560405160405180910390a45050565b600061105482610f1c565b611093576040517f08c379a000000000000000000000000000000000000000000000000000000000815260040161108a9061286d565b60405180910390fd5b600061109e83610850565b90508073ffffffffffffffffffffffffffffffffffffffff168473ffffffffffffffffffffffffffffffffffffffff16148061110d57508373ffffffffffffffffffffffffffffffffffffffff166110f584610633565b73ffffffffffffffffffffffffffffffffffffffff16145b8061111e575061111d8185610bfa565b5b91505092915050565b8273ffffffffffffffffffffffffffffffffffffffff1661114782610850565b73ffffffffffffffffffffffffffffffffffffffff161461119d576040517f08c379a0000000000000000000000000000000000000000000000000000000008152600401611194906127ed565b60405180910390fd5b600073ffffffffffffffffffffffffffffffffffffffff168273ffffffffffffffffffffffffffffffffffffffff16141561120d576040517f08c379a00000000000000000000000000000000000000000000000000000000081526004016112049061282d565b60405180910390fd5b6112188383836119ff565b611223600082610f90565b6001600360008573ffffffffffffffffffffffffffffffffffffffff1673ffffffffffffffffffffffffffffffffffffffff16815260200190815260200160002060008282546112739190612b99565b925050819055506001600360008473ffffffffffffffffffffffffffffffffffffffff1673ffffffffffffffffffffffffffffffffffffffff16815260200190815260200160002060008282546112ca9190612b12565b92505081905550816002600083815260200190815260200160002060006101000a81548173ffffffffffffffffffffffffffffffffffffffff021916908373ffffffffffffffffffffffffffffffffffffffff160217905550808273ffffffffffffffffffffffffffffffffffffffff168473ffffffffffffffffffffffffffffffffffffffff167fddf252ad1be2c89b69c2b068fc378daa952ba7f163c4a11628f55a4df523b3ef60405160405180910390a4611389838383611a04565b505050565b6000600760009054906101000a900473ffffffffffffffffffffffffffffffffffffffff16905081600760006101000a81548173ffffffffffffffffffffffffffffffffffffffff021916908373ffffffffffffffffffffffffffffffffffffffff1602179055508173ffffffffffffffffffffffffffffffffffffffff168173ffffffffffffffffffffffffffffffffffffffff167f8be0079c531659141344cd1fd0a4f28419497f9722a3daafe3b4186f6b6457e060405160405180910390a35050565b8173ffffffffffffffffffffffffffffffffffffffff168373ffffffffffffffffffffffffffffffffffffffff1614156114c3576040517f08c379a00000000000000000000000000000000000000000000000000000000081526004016114ba9061284d565b60405180910390fd5b80600560008573ffffffffffffffffffffffffffffffffffffffff1673ffffffffffffffffffffffffffffffffffffffff16815260200190815260200160002060008473ffffffffffffffffffffffffffffffffffffffff1673ffffffffffffffffffffffffffffffffffffffff16815260200190815260200160002060006101000a81548160ff0219169083151502179055508173ffffffffffffffffffffffffffffffffffffffff168373ffffffffffffffffffffffffffffffffffffffff167f17307eab39ab6107e8899845ad3d59bd9653f200f220920489ca2b5937696c31836040516115b49190612770565b60405180910390a3505050565b6115cc848484611127565b6115d884848484611a09565b611617576040517f08c379a000000000000000000000000000000000000000000000000000000000815260040161160e906127ad565b60405180910390fd5b50505050565b606061162882610f1c565b611667576040517f08c379a000000000000000000000000000000000000000000000000000000000815260040161165e9061292d565b60405180910390fd5b600060066000848152602001908152602001600020805461168790612c83565b80601f01602080910402602001604051908101604052809291908181526020018280546116b390612c83565b80156117005780601f106116d557610100808354040283529160200191611700565b820191906000526020600020905b8154815290600101906020018083116116e357829003601f168201915b505050505090506000611711611ba0565b905060008151141561172757819250505061176a565b60008251111561175c5780826040516020016117449291906126e5565b6040516020818303038152906040529250505061176a565b61176584611bdd565b925050505b919050565b600081600001549050919050565b6001816000016000828254019250508190555050565b6117ad828260405180602001604052806000815250611c84565b5050565b6117ba82610f1c565b6117f9576040517f08c379a00000000000000000000000000000000000000000000000000000000081526004016117f0906128ed565b60405180910390fd5b80600660008481526020019081526020016000209080519060200190611820929190611eaf565b505050565b600073ffffffffffffffffffffffffffffffffffffffff168273ffffffffffffffffffffffffffffffffffffffff161415611895576040517f08c379a000000000000000000000000000000000000000000000000000000000815260040161188c9061290d565b60405180910390fd5b61189e81610f1c565b156118de576040517f08c379a00000000000000000000000000000000000000000000000000000000081526004016118d59061280d565b60405180910390fd5b6118ea600083836119ff565b6001600360008473ffffffffffffffffffffffffffffffffffffffff1673ffffffffffffffffffffffffffffffffffffffff168152602001908152602001600020600082825461193a9190612b12565b92505081905550816002600083815260200190815260200160002060006101000a81548173ffffffffffffffffffffffffffffffffffffffff021916908373ffffffffffffffffffffffffffffffffffffffff160217905550808273ffffffffffffffffffffffffffffffffffffffff16600073ffffffffffffffffffffffffffffffffffffffff167fddf252ad1be2c89b69c2b068fc378daa952ba7f163c4a11628f55a4df523b3ef60405160405180910390a46119fb60008383611a04565b5050565b505050565b505050565b6000611a2a8473ffffffffffffffffffffffffffffffffffffffff16611cdf565b15611b93578373ffffffffffffffffffffffffffffffffffffffff1663150b7a02611a53610f88565b8786866040518563ffffffff1660e01b8152600401611a759493929190612724565b602060405180830381600087803b158015611a8f57600080fd5b505af1925050508015611ac057506040513d601f19601f82011682018060405250810190611abd91906122af565b60015b611b43573d8060008114611af0576040519150601f19603f3d011682016040523d82523d6000602084013e611af5565b606091505b50600081511415611b3b576040517f08c379a0000000000000000000000000000000000000000000000000000000008152600401611b32906127ad565b60405180910390fd5b805181602001fd5b63150b7a0260e01b7bffffffffffffffffffffffffffffffffffffffffffffffffffffffff1916817bffffffffffffffffffffffffffffffffffffffffffffffffffffffff191614915050611b98565b600190505b949350505050565b60606040518060400160405280600781526020017f697066733a2f2f00000000000000000000000000000000000000000000000000815250905090565b6060611be882610f1c565b611c27576040517f08c379a0000000000000000000000000000000000000000000000000000000008152600401611c1e9061298d565b60405180910390fd5b6000611c31611ba0565b90506000815111611c515760405180602001604052806000815250611c7c565b80611c5b84611d02565b604051602001611c6c9291906126e5565b6040516020818303038152906040525b915050919050565b611c8e8383611825565b611c9b6000848484611a09565b611cda576040517f08c379a0000000000000000000000000000000000000000000000000000000008152600401611cd1906127ad565b60405180910390fd5b505050565b6000808273ffffffffffffffffffffffffffffffffffffffff163b119050919050565b60606000821415611d4a576040518060400160405280600181526020017f30000000000000000000000000000000000000000000000000000000000000008152509050611eaa565b600082905060005b60008214611d7c578080611d6590612ce6565b915050600a82611d759190612b68565b9150611d52565b60008167ffffffffffffffff811115611dbe577f4e487b7100000000000000000000000000000000000000000000000000000000600052604160045260246000fd5b6040519080825280601f01601f191660200182016040528015611df05781602001600182028036833780820191505090505b5090505b60008514611ea357600182611e099190612b99565b9150600a85611e189190612d2f565b6030611e249190612b12565b60f81b818381518110611e60577f4e487b7100000000000000000000000000000000000000000000000000000000600052603260045260246000fd5b60200101907effffffffffffffffffffffffffffffffffffffffffffffffffffffffffffff1916908160001a905350600a85611e9c9190612b68565b9450611df4565b8093505050505b919050565b828054611ebb90612c83565b90600052602060002090601f016020900481019282611edd5760008555611f24565b82601f10611ef657805160ff1916838001178555611f24565b82800160010185558215611f24579182015b82811115611f23578251825591602001919060010190611f08565b5b509050611f319190611f35565b5090565b5b80821115611f4e576000816000905550600101611f36565b5090565b6000611f65611f6084612a6d565b612a48565b905082815260208101848484011115611f7d57600080fd5b611f88848285612c41565b509392505050565b6000611fa3611f9e84612a9e565b612a48565b905082815260208101848484011115611fbb57600080fd5b611fc6848285612c41565b509392505050565b600081359050611fdd81613375565b92915050565b600081359050611ff28161338c565b92915050565b600081359050612007816133a3565b92915050565b60008151905061201c816133a3565b92915050565b600082601f83011261203357600080fd5b8135612043848260208601611f52565b91505092915050565b600082601f83011261205d57600080fd5b813561206d848260208601611f90565b91505092915050565b600081359050612085816133ba565b92915050565b60006020828403121561209d57600080fd5b60006120ab84828501611fce565b91505092915050565b600080604083850312156120c757600080fd5b60006120d585828601611fce565b92505060206120e685828601611fce565b9150509250929050565b60008060006060848603121561210557600080fd5b600061211386828701611fce565b935050602061212486828701611fce565b925050604061213586828701612076565b9150509250925092565b6000806000806080858703121561215557600080fd5b600061216387828801611fce565b945050602061217487828801611fce565b935050604061218587828801612076565b925050606085013567ffffffffffffffff8111156121a257600080fd5b6121ae87828801612022565b91505092959194509250565b600080604083850312156121cd57600080fd5b60006121db85828601611fce565b92505060206121ec85828601611fe3565b9150509250929050565b6000806040838503121561220957600080fd5b600061221785828601611fce565b925050602083013567ffffffffffffffff81111561223457600080fd5b6122408582860161204c565b9150509250929050565b6000806040838503121561225d57600080fd5b600061226b85828601611fce565b925050602061227c85828601612076565b9150509250929050565b60006020828403121561229857600080fd5b60006122a684828501611ff8565b91505092915050565b6000602082840312156122c157600080fd5b60006122cf8482850161200d565b91505092915050565b6000602082840312156122ea57600080fd5b600082013567ffffffffffffffff81111561230457600080fd5b6123108482850161204c565b91505092915050565b60006020828403121561232b57600080fd5b600061233984828501612076565b91505092915050565b61234b81612bcd565b82525050565b61235a81612bdf565b82525050565b600061236b82612acf565b6123758185612ae5565b9350612385818560208601612c50565b61238e81612e1c565b840191505092915050565b60006123a482612ada565b6123ae8185612af6565b93506123be818560208601612c50565b6123c781612e1c565b840191505092915050565b60006123dd82612ada565b6123e78185612b07565b93506123f7818560208601612c50565b80840191505092915050565b6000612410603283612af6565b915061241b82612e2d565b604082019050919050565b6000612433602683612af6565b915061243e82612e7c565b604082019050919050565b6000612456602583612af6565b915061246182612ecb565b604082019050919050565b6000612479601c83612af6565b915061248482612f1a565b602082019050919050565b600061249c602483612af6565b91506124a782612f43565b604082019050919050565b60006124bf601983612af6565b91506124ca82612f92565b602082019050919050565b60006124e2602c83612af6565b91506124ed82612fbb565b604082019050919050565b6000612505603883612af6565b91506125108261300a565b604082019050919050565b6000612528602a83612af6565b915061253382613059565b604082019050919050565b600061254b602983612af6565b9150612556826130a8565b604082019050919050565b600061256e602e83612af6565b9150612579826130f7565b604082019050919050565b6000612591602083612af6565b915061259c82613146565b602082019050919050565b60006125b4603183612af6565b91506125bf8261316f565b604082019050919050565b60006125d7602c83612af6565b91506125e2826131be565b604082019050919050565b60006125fa602083612af6565b91506126058261320d565b602082019050919050565b600061261d602f83612af6565b915061262882613236565b604082019050919050565b6000612640602183612af6565b915061264b82613285565b604082019050919050565b6000612663603183612af6565b915061266e826132d4565b604082019050919050565b6000612686601383612af6565b915061269182613323565b602082019050919050565b60006126a9600f83612af6565b91506126b48261334c565b602082019050919050565b6126c881612c37565b82525050565b60006126da82846123d2565b915081905092915050565b60006126f182856123d2565b91506126fd82846123d2565b91508190509392505050565b600060208201905061271e6000830184612342565b92915050565b60006080820190506127396000830187612342565b6127466020830186612342565b61275360408301856126bf565b81810360608301526127658184612360565b905095945050505050565b60006020820190506127856000830184612351565b92915050565b600060208201905081810360008301526127a58184612399565b905092915050565b600060208201905081810360008301526127c681612403565b9050919050565b600060208201905081810360008301526127e681612426565b9050919050565b6000602082019050818103600083015261280681612449565b9050919050565b600060208201905081810360008301526128268161246c565b9050919050565b600060208201905081810360008301526128468161248f565b9050919050565b60006020820190508181036000830152612866816124b2565b9050919050565b60006020820190508181036000830152612886816124d5565b9050919050565b600060208201905081810360008301526128a6816124f8565b9050919050565b600060208201905081810360008301526128c68161251b565b9050919050565b600060208201905081810360008301526128e68161253e565b9050919050565b6000602082019050818103600083015261290681612561565b9050919050565b6000602082019050818103600083015261292681612584565b9050919050565b60006020820190508181036000830152612946816125a7565b9050919050565b60006020820190508181036000830152612966816125ca565b9050919050565b60006020820190508181036000830152612986816125ed565b9050919050565b600060208201905081810360008301526129a681612610565b9050919050565b600060208201905081810360008301526129c681612633565b9050919050565b600060208201905081810360008301526129e681612656565b9050919050565b60006020820190508181036000830152612a0681612679565b9050919050565b60006020820190508181036000830152612a268161269c565b9050919050565b6000602082019050612a4260008301846126bf565b92915050565b6000612a52612a63565b9050612a5e8282612cb5565b919050565b6000604051905090565b600067ffffffffffffffff821115612a8857612a87612ded565b5b612a9182612e1c565b9050602081019050919050565b600067ffffffffffffffff821115612ab957612ab8612ded565b5b612ac282612e1c565b9050602081019050919050565b600081519050919050565b600081519050919050565b600082825260208201905092915050565b600082825260208201905092915050565b600081905092915050565b6000612b1d82612c37565b9150612b2883612c37565b9250827fffffffffffffffffffffffffffffffffffffffffffffffffffffffffffffffff03821115612b5d57612b5c612d60565b5b828201905092915050565b6000612b7382612c37565b9150612b7e83612c37565b925082612b8e57612b8d612d8f565b5b828204905092915050565b6000612ba482612c37565b9150612baf83612c37565b925082821015612bc257612bc1612d60565b5b828203905092915050565b6000612bd882612c17565b9050919050565b60008115159050919050565b60007fffffffff0000000000000000000000000000000000000000000000000000000082169050919050565b600073ffffffffffffffffffffffffffffffffffffffff82169050919050565b6000819050919050565b82818337600083830152505050565b60005b83811015612c6e578082015181840152602081019050612c53565b83811115612c7d576000848401525b50505050565b60006002820490506001821680612c9b57607f821691505b60208210811415612caf57612cae612dbe565b5b50919050565b612cbe82612e1c565b810181811067ffffffffffffffff82111715612cdd57612cdc612ded565b5b80604052505050565b6000612cf182612c37565b91507fffffffffffffffffffffffffffffffffffffffffffffffffffffffffffffffff821415612d2457612d23612d60565b5b600182019050919050565b6000612d3a82612c37565b9150612d4583612c37565b925082612d5557612d54612d8f565b5b828206905092915050565b7f4e487b7100000000000000000000000000000000000000000000000000000000600052601160045260246000fd5b7f4e487b7100000000000000000000000000000000000000000000000000000000600052601260045260246000fd5b7f4e487b7100000000000000000000000000000000000000000000000000000000600052602260045260246000fd5b7f4e487b7100000000000000000000000000000000000000000000000000000000600052604160045260246000fd5b6000601f19601f8301169050919050565b7f4552433732313a207472616e7366657220746f206e6f6e20455243373231526560008201527f63656976657220696d706c656d656e7465720000000000000000000000000000602082015250565b7f4f776e61626c653a206e6577206f776e657220697320746865207a65726f206160008201527f6464726573730000000000000000000000000000000000000000000000000000602082015250565b7f4552433732313a207472616e736665722066726f6d20696e636f72726563742060008201527f6f776e6572000000000000000000000000000000000000000000000000000000602082015250565b7f4552433732313a20746f6b656e20616c7265616479206d696e74656400000000600082015250565b7f4552433732313a207472616e7366657220746f20746865207a65726f2061646460008201527f7265737300000000000000000000000000000000000000000000000000000000602082015250565b7f4552433732313a20617070726f766520746f2063616c6c657200000000000000600082015250565b7f4552433732313a206f70657261746f7220717565727920666f72206e6f6e657860008201527f697374656e7420746f6b656e0000000000000000000000000000000000000000602082015250565b7f4552433732313a20617070726f76652063616c6c6572206973206e6f74206f7760008201527f6e6572206e6f7220617070726f76656420666f7220616c6c0000000000000000602082015250565b7f4552433732313a2062616c616e636520717565727920666f7220746865207a6560008201527f726f206164647265737300000000000000000000000000000000000000000000602082015250565b7f4552433732313a206f776e657220717565727920666f72206e6f6e657869737460008201527f656e7420746f6b656e0000000000000000000000000000000000000000000000602082015250565b7f45524337323155524953746f726167653a2055524920736574206f66206e6f6e60008201527f6578697374656e7420746f6b656e000000000000000000000000000000000000602082015250565b7f4552433732313a206d696e7420746f20746865207a65726f2061646472657373600082015250565b7f45524337323155524953746f726167653a2055524920717565727920666f722060008201527f6e6f6e6578697374656e7420746f6b656e000000000000000000000000000000602082015250565b7f4552433732313a20617070726f76656420717565727920666f72206e6f6e657860008201527f697374656e7420746f6b656e0000000000000000000000000000000000000000602082015250565b7f4f776e61626c653a2063616c6c6572206973206e6f7420746865206f776e6572600082015250565b7f4552433732314d657461646174613a2055524920717565727920666f72206e6f60008201527f6e6578697374656e7420746f6b656e0000000000000000000000000000000000602082015250565b7f4552433732313a20617070726f76616c20746f2063757272656e74206f776e6560008201527f7200000000000000000000000000000000000000000000000000000000000000602082015250565b7f4552433732313a207472616e736665722063616c6c6572206973206e6f74206f60008201527f776e6572206e6f7220617070726f766564000000000000000000000000000000602082015250565b7f4e465420616c7265616479206d696e7465642100000000000000000000000000600082015250565b7f4e65656420746f20706179207570210000000000000000000000000000000000600082015250565b61337e81612bcd565b811461338957600080fd5b50565b61339581612bdf565b81146133a057600080fd5b50565b6133ac81612beb565b81146133b757600080fd5b50565b6133c381612c37565b81146133ce57600080fd5b5056fea2646970667358221220a85c85e437d80179286cf7889582f1bae5d99f727aa356f349a6457417a7406e64736f6c63430008040033",
  "linkReferences": {},
  "deployedLinkReferences": {}
}